:020000040800F2
:1000000038470020450100085D2E00085F2E0008DB
:10001000632E0008672E00086B2E00080000000009
:100020000000000000000000000000006F2E00082B
:10003000712E000800000000732E0008752E0008C5
:100040005F0100085F0100085F0100085F01000810
:100050005F0100085F010008772E0008972E000856
:100060005F0100085F010008BB2E00085F01000867
:10007000C13000085F010008572F00085F01000829
:100080005F0100080B3000085F0100085F010008F5
:100090005F0100085F0100085F010008B72E00083B
:1000A0005F0100085F0100085F0100085F010008B0
:1000B000673300085F0100085F0100085F01000866
:1000C0005F0100085F0100085F0100085F01000890
:1000D0005F010008A32F000859300008172F0008FF
:1000E000B92E00085F0100085F0100085F010008E9
:1000F0005F0100085F0100085F0100085F01000860
:100100005F0100085F010008DF3300085F0100089D
:1001100063310008C93100085F0100085F01000871
:100120005F0100085F0100085F010008133100084B
:10013000DFF80CD010F0B2F900480047412E00085B
:10014000384700200648804706480047FEE7FEE79C
:10015000FEE7FEE7FEE7FEE7FEE7FEE7FEE7FEE777
:100160003F2D00083101000831490143314A116037
:10017000704770B5002100230F22C47804B32D4CC2
:10018000246804F4E064C4F5E064210AC1F10403C6
:10019000CA40447804FA03F18478144021430901E9
:1001A000254C0678A155047804F01F050124AC40C5
:1001B00005786D11AD0005F1E025C5F8004109E0B5
:1001C000047804F01F050124AC401C4D067876111C
:1001D00045F8264070BD1A4A0A400243154B1B1FC2
:1001E0001A60704739B1134A121D12680243114B4D
:1001F0001B1D1A6006E00F4A121D126882430D4B48
:100200001B1D1A607047042808D14FF0E0210969CE
:1002100041F004014FF0E022116107E04FF0E021CE
:10022000096921F004014FF0E022116170470000DC
:100230000000FA050CED00E000E400E080E100E0E1
:1002400080FFFF1F10B50446FA48844208D10121FF
:10025000401501F0C1F80021601501F0BDF817E06C
:10026000F548844208D10121001501F0B5F80021BC
:10027000201501F0B1F80BE0F048844208D10121CB
:10028000C80301F0A9F800214FF4004001F0A4F8E0
:1002900010BD30B50246002000235068E84C2040D5
:1002A0000D790C6844EA0524204350609068E54CC1
:1002B0002040D1E902542C434D7944EA45042043BF
:1002C0009060D06A20F470000C7C641EE4B223437A
:1002D00040EA0350D06230BD0021016001714171DC
:1002E0008160C16001210174704721B1826842F0D0
:1002F0000102826003E0826822F00102826070479E
:1003000021B1826842F48072826003E0826822F444
:1003100080728260704710B50023CBB21AB1446876
:100320001C43446002E044689C43446010BD816803
:1003300041F0080181607047014600208A6802F0A0
:1003400008020AB1012000E000207047816841F0F6
:10035000040181607047014600208A6802F00402AF
:100360000AB1012000E00020704721B1826842F408
:10037000A002826003E0826822F4A00282607047DB
:10038000014600208A6802F480020AB1012000E0E0
:100390000020704710B50A4600210023416821F46F
:1003A0006041531E41EA4331416010BD21B14268B2
:1003B00042F40062426003E0426822F4006242605C
:1003C0007047F0B504460D4600200021092D11DDCF
:1003D000E068A5F10A0606EB4607072606FA07F1CC
:1003E0008843A5F10A0606EB460603FA06F1084320
:1003F000E0600CE0206905EB4507072606FA07F1E7
:10040000884305EB450603FA06F108432061072AF5
:100410000FDA606B561E06EB86071F2606FA07F1F9
:100420008843561E06EB860605FA06F1084360630C
:1004300022E00D2A0FDA206BD61F06EB86071F2657
:1004400006FA07F18843D61F06EB860605FA06F181
:100450000843206310E0E06AA2F10D0606EB860770
:100460001F2606FA07F18843A2F10D0606EB860661
:1004700005FA06F10843E062F0BD21B1826842F45A
:100480008012826003E0826822F4801282607047EA
:100490000146C86C80B2704766484C3000687047AF
:1004A00021B1426842F48062426003E0426822F473
:1004B00080624260704721B1426842F480524260DB
:1004C00003E0426822F48052426070470A460021ED
:1004D000816821F4E04111438160704721B1826855
:1004E00042F40042826003E0826822F400428260AB
:1004F000704721B1826842F40212826003E0826890
:1005000022F4021282607047014600208A6802F4D9
:1005100000120AB1012000E000207047F0B5044647
:100520001546002000220026092911DDE068A1F10E
:100530000A0707EB470C072707FA0CF29043A1F1D3
:100540000A0707EB470703FA07F21043E0600CE0E5
:10055000206901EB410C072707FA0CF2904301EBED
:10056000410703FA07F210432061A06BC0F3015664
:10057000EF1C06F1010CA7EB0C0707EB870C1F27FC
:1005800007FA0CF29043EF1C06F1010CA7EB0C07E5
:1005900007EB870701FA07F21043A063F0BD10B51F
:1005A0000A4600210023816B21F44011531E41EAC9
:1005B0000351816310BD08B5002300930090009B98
:1005C0000B440093009B1A6008BD08B5024600204A
:1005D0000090009201F12800009B184400900098C0
:1005E000006880B208BD0A4600214168164B1940D8
:1005F0001143416070474162826270470A460021A0
:10060000416821F01F0111434160704740B1094921
:100610000831096841F40001064A0832116007E018
:1006200004490831096821F40001024A08321160C6
:10063000704700000024014000280140003C0140B8
:10064000FFFEF0FFFDF7F1FFFFFD3FFF0246002038
:1006500013680B400BB1012000E000207047CA4333
:100660000260704770B502460020002300240B1280
:100670005568CEB205EA060415681D4015B10CB1E7
:10068000012000E0002070BD00220A12D343036065
:1006900070470000002044490860091D0860091DDA
:1006A0000860091D086041483F49143108607047DF
:1006B00000213D498279002A3AD00A46126803682F
:1006C0009A430B461A600A1D126803689A430B1D71
:1006D0001A60027911440A6803681A430A60324AB0
:1006E0000832126803689A432F4B08331A601A1DA8
:1006F000126803689A432C4B0C331A604279102A13
:100700000ED11A1F126803681A43274B08331A6068
:100710001A1D126803681A43234B0C331A600DE04C
:100720002149427911440A6803681A430A6005E0C6
:10073000027911440A6803689A430A6070470021ED
:10074000016001710C2141710021817170471649CE
:10075000103109680143144A103211607047014694
:100760000020114A143212680A400AB1012000E048
:10077000002070470C491431086070470146002082
:100780000022094B1B6803EA0102074B14331B6864
:100790000B4013B10AB1012000E00020704702496C
:1007A000143108607047000000040140FFFF0F0093
:1007B00001460020FE4A106800F03800084310602F
:1007C0007047FB49096821F00801F94A1160114698
:1007D0000968014311607047F549096821F010016B
:1007E000F34A116011460968014311607047F148EE
:1007F000EF494860F04848607047EE48EC4948606F
:10080000ED4848607047EA48006940F08000E849D8
:1008100008617047E648006940F08000E4490861DB
:1008200070470420E249C96801F0010109B10120C3
:100830000EE0DF49C96801F0040109B1022007E0B8
:10084000DB49C96801F0100109B1032000E0042070
:10085000704700B502460423FFF7E3FF034603E0B9
:10086000FFF7DFFF0346521E012B01D1002AF7D10B
:1008700002B90523184600BD30B5044604254FF4DF
:100880003020FFF7E6FF0546042D17D1C848006960
:1008900040F00200C649086108464461006940F022
:1008A000400008614FF43020FFF7D3FF0546C048F1
:1008B000006941F6FD710840BD490861284630BD18
:1008C00010B504244FF43020FFF7C3FF0446042C76
:1008D00016D1B748006940F00400B54908610846E0
:1008E000006940F0400008614FF43020FFF7B1FF8D
:1008F0000446AF48006941F6FB710840AC49086105
:10090000204610BD00B502460423FFF78AFF0346C8
:1009100003E0FFF786FF0346521E012B01D1002A98
:10092000F7D102B90523184600BD10B504244FF4D1
:100930003020FFF7E7FF0446042C16D19C480069DD
:1009400040F004009A4908610846006940F0400000
:1009500008614FF43020FFF7D5FF04469448006942
:1009600041F6FB71084092490861204610BD002005
:100970008F49C96901F0020109B1012000E000209E
:10098000704730B5A5250424FFF7F1FF00B100251D
:100990004FF43020FFF75DFF0446042C3AD1854820
:1009A00083498860844888600846006940F02000D8
:1009B00008610846006940F0400008614FF43020AB
:1009C000FFF747FF0446042C1BD17948006941F624
:1009D000DF710840764908610846006940F0100060
:1009E000086176480580E002FFF733FF0446052CD6
:1009F00010D06F48006941F6EF7108406C490861FA
:100A000008E0052C06D06A48006941F6EF710840FD
:100A100067490861204630BD78B506460C46042576
:100A200000200090E802FFF714FF0546042D24D1B2
:100A30005F48006940F001005D4908613480E802C8
:100A4000FFF707FF0546042D10D1B01C0090200CC5
:100A500000990880E802FFF7FCFE0546544800694B
:100A600041F6FE7108405249086106E050480069AD
:100A700041F6FE7108404E490861284678BD70B5C0
:100A800004460D460426F002FFF7E3FE0646042E58
:100A900011D14748006940F00100454908612580AF
:100AA000F002FFF7D6FE06464148006941F6FE71A6
:100AB00008403F490861304670BD70B505460E4696
:100AC0000424E002FFF7C5FE0446042C17D1394880
:100AD00037498860384888600846006940F010004F
:100AE00008612E80E002FFF7B4FE0446052C06D014
:100AF0002F48006941F6EF7108402D4908612046F2
:100B000070BD2DE9F04304464FF6FF763746B046F8
:100B1000B1460425E443E6B2C4F30727C4F307480B
:100B20004FEA1469E802FFF794FE0546042D49D107
:100B300020481F498860204888600846006940F0C6
:100B400010000861FF2E06D01C4808300680E8021D
:100B5000FFF77FFE0546042D08D1FF2F06D017486A
:100B60000A300780E802FFF774FE0546042D0AD11B
:100B7000B8F1FF0F07D011480C30A0F80080E80250
:100B8000FFF767FE0546042D0AD1B9F1FF0F07D024
:100B90000A480E30A0F80090E802FFF75AFE05461A
:100BA000052D0FD00248006941F6EF71084007E0BB
:100BB0000020024023016745AB89EFCD00F8FF1FFD
:100BC000664908612846BDE8F08330B5054604242F
:100BD0004FF43020FFF73DFE0446042C41D160481D
:100BE0005E4988605F4888600846006940F02000E0
:100BF00008610846006940F0400008614FF4302069
:100C0000FFF727FE0446042C22D15448006941F620
:100C1000DF710840514908610846006940F0100042
:100C200008611DB100205049088002E0A5204E490E
:100C300008804FF43020FFF70CFE0446052C10D03E
:100C40004648006941F6EF7108404449086108E0F0
:100C5000052C06D04148006941F6DF7108403F4944
:100C60000861204630BDF0B505460E4617460424FF
:100C70003B483A4988603B488860E002FFF7E9FD5D
:100C80000446042C19D13548006940F0100033495E
:100C9000086147F0F800304328433349891C088035
:100CA000E002FFF7D6FD0446052C06D02B4800696C
:100CB00041F6EF710840294908612046F0BD2748F8
:100CC000C069800870472548006A704700202349A2
:100CD000096801F0200109B1012000E000207047FF
:100CE00029B11E4A126902431C4B1A6104E01B4AD7
:100CF00012698243194B1A6170470146002001298D
:100D000008D1164AD26902F001020AB1012008E0B6
:100D1000002006E0114AD2680A400AB1012000E032
:100D2000002070470D49C860704704200B49C9680E
:100D300001F0010109B101200EE00849C96801F084
:100D4000040109B1022007E00449C96801F010015B
:100D500009B1032000E00420704700000020024099
:100D600023016745AB89EFCD00F8FF1F10B504469E
:100D7000CC48844208D10121042000F02DFB002141
:100D8000042000F029FB46E0C748844208D1012135
:100D9000082000F021FB0021082000F01DFB3AE0B4
:100DA000C248844208D10121102000F015FB002127
:100DB000102000F011FB2EE0BD48844208D1012133
:100DC000202000F009FB0021202000F005FB22E09C
:100DD000B848844208D10121402000F0FDFA0021EA
:100DE000402000F0F9FA16E0B348844208D101210E
:100DF000802000F0F1FA0021802000F0EDFA0AE0F6
:100E0000AE48844207D10121801500F0E5FA0021A7
:100E1000A01500F0E1FA10BD10B50121084600F060
:100E2000DBFA0021012000F0D7FA10BD2DE9F041D6
:100E3000024600250026002000230024002791F808
:100E400003C00CF00F0591F803C00CF0100CBCF1BE
:100E5000000F03D091F802C04CEA050591F800C0DC
:100E6000BCF1000F31D0146800202BE04FF0010CD2
:100E70000CFA00F3B1F800C00CEA03069E4220D140
:100E800083004FF00F0C0CFA03F7BC4305FA03FC88
:100E90004CEA040491F803C0BCF1280F06D14FF0CE
:100EA000010C0CFA00FCC2F814C00AE091F803C06F
:100EB000BCF1480F05D14FF0010C0CFA00FCC2F850
:100EC00010C0401C0828D1D31460B1F800C0BCF198
:100ED000FF0F34DD546800202EE000F1080C4FF0C5
:100EE000010808FA0CF3B1F800C00CEA03069E42B0
:100EF00021D183004FF00F0C0CFA03F7BC4305FA25
:100F000003FC4CEA040491F803C0BCF1280F05D19E
:100F100000F1080C08FA0CF8C2F8148091F803C02C
:100F2000BCF1480F07D100F1080C4FF0010808FA96
:100F30000CF8C2F81080401C0828CED35460BDE8DD
:100F4000F0814FF6FF710180022181700421C17090
:100F500070470246002093680B400BB1012000E06F
:100F6000002070470146886880B270470246002022
:100F7000D3680B400BB1012000E000207047014610
:100F8000C86880B2704701617047416170470AB11B
:100F9000016100E041617047C16070474FF48032E9
:100FA0000A43826181618261826982697047024677
:100FB0000020434B18684FF68073184040EA021037
:100FC00008433F4B186070473E49C8617047F0B511
:100FD0000A46002300240021002500F00046B6F157
:100FE000004F02D1364EF16901E0354E7168C0F311
:100FF000034583B200F44016B6F5401F08D121F036
:1010000070612F4E766826F070662D4F7E6012E07C
:1010100000F48016B6F5801F06D1032606FA05F403
:10102000A14341F0706106E0460D360103FA06F671
:10103000B14341F0706122B1460D360103FA06F664
:10104000314300F00046B6F1004F02D11C4EF16171
:1010500001E01B4E7160F0BD30B500228B071C0F04
:101060000F2303FA04F2164B08338C1053F8243084
:101070009343134C08348D1044F8253023468C10CC
:1010800053F824308C07240F00FA04F423430C4C4B
:1010900008348D1044F8253030BD0A49DC31086031
:1010A0007047000000080140000C014000100140A2
:1010B0000014014000180140001C014000200140C4
:1010C0000000014000002042DF48006840F00100BD
:1010D000DD49086008464068DC490840DA49486054
:1010E00008460068DA490840D749086008460068A1
:1010F00020F4802008600846406820F4FE00486024
:101100004FF41F0088607047CF49096821F480318F
:10111000CD4A11601146096821F480211160B0F5B3
:10112000803F03D0B0F5802F0ED106E0C649096894
:1011300041F48031C44A116007E0C349096841F4B1
:10114000A021C14A116000E000BF00BF704710B588
:1011500001460022002300204A11012A02D1BA4C84
:10116000236806E0022A02D1B74C236A01E0B64C9C
:10117000636A01F01F02012494401C400CB101205D
:1011800000E0002010BD38B50020009000240025AC
:1011900000BF3120FFF7DBFF05460098401C0090A0
:1011A0000098B0F5A06F01D0002DF2D03120FFF7EC
:1011B000CEFF08B1012400E00024204638BD0146DE
:1011C0000020A14A106820F0F80040EAC100106039
:1011D0007047A04908607047024600209A4B586843
:1011E00020F47C1042EA01031843974B5860704783
:1011F00098490866704701460020934A506820F0DD
:1012000003000843506070478F48406800F00C00AE
:101210007047014600208C4A506820F0F0000843D7
:101220005060704701460020874A506820F4E06013
:1012300008435060704701460020834A506820F4FC
:10124000605040EAC1005060704729B17E4A527A2E
:1012500002437D4B5A7204E07B4A527A82437A4BB6
:101260005A7270477B49D8310860704701460020A8
:10127000754A506820F44040084350607047002190
:10128000714A20321170704A82F82010012802D071
:1012900004280AD104E001216B4A2032117005E0D4
:1012A0000521694A2032117000E000BF00BF70477D
:1012B0006949086070476449096A0143624A1162DA
:1012C0007047654944390860704730B500210022F5
:1012D000002400235C4D6D6805F00C0121B1042948
:1012E00005D0082923D105E05C4D056022E05B4D67
:1012F00005601FE0544D6D6805F47012524D6D6825
:1013000005F48034022505EB92421CB9544D554337
:1013100005600BE04C4D6D6805F400351DB1504D76
:101320005543056002E04D4D5543056002E04B4DCD
:10133000056000BF00BF444D6D6805F0F00109096C
:10134000484D6B5C0568DD4045603F4D6D6805F4B8
:10135000E061090A434D6B5C4568DD4085603A4DAC
:101360006D6805F46051C90A3E4D6B5C4568DD400F
:10137000C560354D6D6805F44041890B3A4D6B5C95
:10138000C568B5FBF3F5056130BD29B12E4A526938
:1013900002432D4B5A6104E02B4A526982432A4B87
:1013A0005A61704729B1284A92690243264B9A61D3
:1013B00004E0254A92698243234B9A61704729B120
:1013C000214AD2690243204BDA6104E01E4AD26905
:1013D00082431D4BDA61704729B11B4AD268024330
:1013E000194BDA6004E0184AD2688243164BDA607F
:1013F000704729B1144A12690243134B1A6104E081
:10140000114A12698243104B1A61704712494039E0
:10141000086070470F49C86470470B49C87170472E
:101420000948406A40F080700749486270470146A9
:101430000020054A92680A400AB1012000E000201D
:101440007047014988727047001002400000FFF8A1
:10145000FFFFF6FE000042428004424200127A0082
:1014600000093D00000000201000002010B50446D7
:10147000FE48844208D10121C014FFF7ADFF0021CE
:10148000E014FFF7A9FFC4E0B4F1804F08D10121B7
:101490000846FFF7AEFF00210120FFF7AAFFB8E0E2
:1014A000F348844208D101210220FFF7A2FF002166
:1014B0000220FFF79EFFACE0EE48844208D10121F4
:1014C0000420FFF796FF00210420FFF792FFA0E021
:1014D000E948844208D101210820FFF78AFF002152
:1014E0000820FFF786FF94E0E448844208D10121F8
:1014F0001020FFF77EFF00211020FFF77AFF88E021
:10150000DF48844208D101212020FFF772FF00212B
:101510002020FFF76EFF7CE0DA48844208D10121E9
:101520004014FFF759FF00216014FFF755FF70E0EA
:10153000D548844209D10121C804FFF74DFF00219D
:101540004FF40020FFF748FF63E0D048844209D100
:1015500001210805FFF740FF00214FF48010FFF73D
:101560003BFF56E0CA48844209D101214805FFF7F4
:1015700033FF00214FF40010FFF72EFF49E0C5486C
:10158000844208D101214020FFF733FF0021402091
:10159000FFF72FFF3DE0C048844208D101218020A1
:1015A000FFF727FF00218020FFF723FF31E0BB4832
:1015B000844208D101218015FFF71BFF0021A015EF
:1015C000FFF717FF25E0B648844209D1012108043E
:1015D000FFF702FF00214FF48030FFF7FDFE18E017
:1015E000B048844209D101214804FFF7F5FE0021EB
:1015F0004FF40030FFF7F0FE0BE0AB48844208D117
:1016000001218804FFF7E8FE00214FF48020FFF756
:10161000E3FE10BD00220288944B98420ED0994BF5
:1016200098420BD0B0F1804F08D0914B984205D032
:10163000904B984202D0904B984204D14FF68F7352
:101640001A404B881A438D4B984207D08C4B9842D6
:1016500004D04FF6FF431A40CB881A4302808B8890
:1016600083850B880385814B98420BD0854B98422C
:1016700008D08B4B984205D08A4B984202D08A4BB7
:10168000984201D10B7A038601238382704770B59B
:10169000002400220023058C4FF6FE763540058499
:1016A000028C8388048B4FF68F752C40B51E2C401E
:1016B0000D882C43751E2A400D892A434D882A43E4
:1016C0006A4DA8420BD06F4DA84208D0744DA84275
:1016D00005D0744DA84202D0734DA84213D14FF6E5
:1016E000F7752A404D892A434FF6FB752A408D88AD
:1016F0002A434FF6FF652B404FF6FF552B408D894F
:101700002B43CD892B4383800483CD888586028437
:1017100070BD70B5002400220023058C4FF6EF76D3
:1017200035400584028C8388048B48F6FF752C4075
:101730004FF6FF452C400D884FF6FF7606EA05254B
:101740002C434FF6DF752A400D8906EA05152A431A
:101750004D8806EA05152A43444DA84202D0494D5A
:10176000A8421DD14FF67F752A404D894FF6FF766E
:1017700006EA05152A434FF6BF752A408D8806EA0A
:1017800005152A434FF6FF352B404FF2FF752B40CE
:101790008D8906EA85052B43CD8906EA85052B430D
:1017A00083800483CD880587028470BD70B50024D2
:1017B00000220023058C4FF6FF6635400584028C1D
:1017C0008388848B4FF68F752C404FF6FC752C4028
:1017D0000D882C434FF6FF552A400D894FF6FF76B2
:1017E00006EA05252A434D8806EA05252A431F4DAA
:1017F000A84202D0234DA8421DD14FF2FF752A40C6
:101800004D894FF6FF7606EA05252A434FF6FF3548
:101810002A408D8806EA05252A434EF6FF752B409F
:101820004DF6FF752B408D8906EA05152B43CD89B2
:1018300006EA05152B4383808483CD88858702843F
:1018400070BD70B5002200230024058C4EF6FF7693
:1018500035400584038C8488828B48F6FF752A40C6
:101860004FF6FF452A400D8820E00000002C014083
:101870000004004000080040000C00400010004040
:101880000014004000340140004C01400050014071
:101890000054014000180040001C0040002000409F
:1018A0000040014000440140004801404FF6FF76EF
:1018B00006EA05252A434DF6FF752B400D8906EAF9
:1018C00005352B434D8806EA05352B43FA4DA842D2
:1018D00002D0FA4DA84208D14BF6FF752C408D89F5
:1018E0004FF6FF7606EA85152C4384808283CD88E7
:1018F000A0F84050038470BD828B4FF2FF331A4032
:101900008283828B4FF6FF7303EA01231A4382839B
:101910007047F0B50C461546002200210026078CC2
:101920004EF6FF7C07EA0C070784828B018C4FF68A
:10193000FF7707EA043640F6FF473A404FF6FF7755
:1019400007EA05273A434FF6FF7707EA03373A439A
:10195000D94FB8420ED0D94FB8420BD0B0F1804F1A
:1019600008D0D74FB84205D0D64FB84202D0D64F94
:10197000B84206D14DF6FF77394046F480573943D7
:1019800005E047F6FF57394044F4805739438283D6
:101990000184F0BD828B4FF6F3731A408283828BF1
:1019A0000A4382837047F0B50C4615460022002199
:1019B0000026078C4FF6FF6C07EA0C070784828B22
:1019C000018C4FF6FF7707EA04264FF60C773A4072
:1019D0004FF6FF7707EA03172F433A43B64FB84253
:1019E0000ED0B64FB8420BD0B0F1804F08D0B44FF4
:1019F000B84205D0B34FB84202D0B34FB84206D177
:101A00004FF6FF57394046F48077394305E04FF2EF
:101A1000FF57394044F48077394382830184F0BD15
:101A2000028B4FF2FF331A400283028B4FF6FF7393
:101A300003EA01231A4302837047F0B50C461546AA
:101A4000002200210026078C4FF6EF7C07EA0C07E6
:101A50000784028B018C4FF6FF7707EA041640F6E5
:101A6000FF473A404FF6FF7707EA03373A434FF60E
:101A7000FF7707EA05273A438F4FB8420ED08F4FC2
:101A8000B8420BD0B0F1804F08D08D4FB84205D08E
:101A90008C4FB84202D08C4FB84206D14FF6DF7758
:101AA000394046F01007394305E04FF65F7739407B
:101AB00044F01007394302830184F0BD028B4FF6D6
:101AC000F3731A400283028B0A4302837047F0B516
:101AD0000C46154600220021068C4FF6FE773E404C
:101AE0000684028B018C4FF60C7632407E1C06EA8F
:101AF00003162E433243704EB0420ED06F4EB042AA
:101B00000BD0B0F1804F08D06D4EB04205D06D4E75
:101B1000B04202D06C4EB04206D14FF6FD76314055
:101B200044F00106314305E04FF6F576314044F0CC
:101B30000106314302830184F0BD70B505460C46B1
:101B40005D4885420ED05D4885420BD0B5F1804F8F
:101B500008D05B48854205D05A48854202D05A4891
:101B6000854200D100E000BF208850B92389A288B7
:101B700061882846FFF7ABFFE1882846FFF79EFF04
:101B800025E0208804280AD12389A2886188284674
:101B9000FFF753FFE1882846FFF742FF17E0208850
:101BA00008280AD12389A28861882846FFF7FBFE0E
:101BB000E1882846FFF7EEFE09E02389A2886188C4
:101BC0002846FFF7A6FEE1882846FFF795FE70BD80
:101BD0002DE9F04105460C4600260127608808B92A
:101BE000022600E00026A088012801D1022700E09B
:101BF00001272088A0B92389A28861882846FFF799
:101C000066FFE1882846FFF759FF23893A463146A7
:101C10002846FFF712FFE1882846FFF701FF13E08F
:101C20002389A28861882846FFF707FFE1882846B4
:101C3000FFF7F6FE23893A4631462846FFF747FF6D
:101C4000E1882846FFF73AFFBDE8F0810A884B8813
:101C50001A438B881A43CB881A430B891A434B8942
:101C60001A438B891A43A0F8442070474FF6FF713E
:101C7000818000210180C180418001727047002174
:101C8000018041808180C180018141818181C18148
:101C90007047002101804180012181800021C180A5
:101CA000018170470021018041808180C1800181D4
:101CB0004181818170470000002C014000340140C7
:101CC0000004004000080040000C004021B10288E0
:101CD00042F00102028004E002884FF6FE731A40CF
:101CE0000280704731B1B0F8442042F40042A0F8BD
:101CF000442005E0B0F84420C2F30E02A0F84420CE
:101D000070471AB183890B43838102E083898B4337
:101D1000838170478182704741EA0203A0F848300E
:101D200070471AB183890B43838102E083898B4317
:101D30008381704701894FF6F87211400181704725
:101D40000A46002101894FF68F7319401143018122
:101D5000704730B504460D4629462046FFF7F0FF90
:101D6000208940F00700208130BD2DE9F041044674
:101D70000D4616461F46602D06D13B4601223146D0
:101D80002046FFF75AFE05E03B4601223146204639
:101D9000FFF79DFE29462046FFF7D2FF208940F03D
:101DA00007002081BDE8F08130B50C460021018993
:101DB000C9B24FF6FF7505EA0325154325432943AC
:101DC000018130BD2DE9F04105460E461746984683
:101DD000002443463A4631462846FFF7E5FF2C8962
:101DE0004FF6F870044044F007044FF68F7004403B
:101DF00044F070042C81BDE8F081F0B504460D4636
:101E000016461F463B46324629462046FFF7CCFF82
:101E1000208940F480402081F0BD01858282704796
:101E20000A46002101884FF68F7319401143018043
:101E30007047F0B50C4615461E46002100220023CF
:101E40000189028B038C4FF6F877394021434FF616
:101E5000FC473A4040F201173A434FF6DD773B40EA
:101E60004FF6FF7707EA06172F433B4301810283B2
:101E70000384F0BD0A460021018B4FF68F73194091
:101E80001143018370470A460021018B48F6FF7316
:101E900019404FF6FF7303EA022319430183704789
:101EA0000A460021818B4FF68F73194011438183BD
:101EB00070470A460021818B48F6FF7319404FF6A0
:101EC000FF7303EA022319438183704721B102881B
:101ED00042F08002028004E002884FF67F731A40CD
:101EE0000280704721B1828842F00402828004E0BF
:101EF00082884FF6FB731A408280704721B1828836
:101F000042F00802828004E082884FF6F7731A409C
:101F10008280704721B1828842F00102828004E011
:101F200082884FF6FE731A40828070470A4600216D
:101F3000018B4FF6F77319401143018370470A462E
:101F40000021018B4FF2FF7319404FF6FF7303EA34
:101F500002231943018370470A460021818B4FF603
:101F6000F77319401143818370470A460021818B22
:101F70004FF2FF7319404FF6FF7303EA0223194330
:101F8000818370470A460021018B4FF6FB7319408D
:101F90001143018370470A460021018B4FF6FF333E
:101FA00019404FF6FF7303EA022319430183704778
:101FB0000A460021818B4FF6FB7319401143818340
:101FC00070470A460021818B4FF6FF3319404FF6C8
:101FD000FF7303EA02231943818370470A460021F5
:101FE000018B4FF67F7319401143018370470A46F6
:101FF0000021018BC1F30E014FF6FF7303EA0223A8
:102000001943018370470A460021818B4FF67F7385
:1020100019401143818370470A460021818BC1F327
:102020000E014FF6FF7303EA0223194381837047C1
:102030000A460021018C4FF6FD73194011430184BB
:1020400070470A460021018C4FF6F773194011437F
:10205000018470470A460021018C4FF6DF73194056
:102060004FF6FF7303EA02131943018470470A46CF
:102070000021018C4FF67F7319404FF6FF7303EA7E
:1020800002131943018470470A460021018C4FF660
:10209000FF5319404FF6FF7303EA022319430184EB
:1020A00070470A460021018C4FF2FF7319404FF62A
:1020B000FF7303EA02231943018470470A46002193
:1020C000018C4DF6FF7319404FF6FF7303EA02339C
:1020D00019430184704730B5002301248C40A3B21A
:1020E000048C9C430484048C02FA01F5ADB22C43A9
:1020F000048430BD30B5002304248C40A3B2048C8A
:102100009C430484048C02FA01F5ADB22C43048490
:1021100030BD70B503460020002418461830012554
:102120008D40ACB21D8CA5431D8409B1082909D18D
:1021300000EB6100056825F0700505600568154332
:1021400005600EE00D1FC5F34E052844056825F413
:10215000E045056005684FF6FF7606EA022635433E
:10216000056070BD21B1028842F00202028004E0E5
:1021700002884FF6FD731A400280704721B1028831
:1021800042F00402028004E002884FF6FB731A401A
:102190000280704721B1828842F08002828004E090
:1021A00082884FF67F731A408280704702884FF60C
:1021B000F7731A40028002880A43028070478288BF
:1021C0004FF68F731A40828082880A43828070475C
:1021D00002894FF6F8731A40028102890A4302818C
:1021E000704702894FF67F731A40028102890A43C1
:1021F000028170478184704781857047818670476E
:102200000187704781877047A0F8401070470288A7
:102210004FF6FF431A40028002880A43028070474B
:102220000146888E70470146088F70470146888FA7
:1022300070470146B1F8400070470146888C7047EE
:102240000146088D704702460020138A0B400BB1EF
:10225000012000E000207047CA430282704730B579
:102260000246002000230024158A05EA010395890F
:1022700005EA010413B10CB1012000E0002030BDDB
:10228000CA4302827047000010B50446F7488442F2
:1022900009D101218803FFF79FF800214FF4804006
:1022A000FFF79AF832E0F248844209D1012148044C
:1022B000FFF79FF800214FF40030FFF79AF825E070
:1022C000EC48844209D101218804FFF792F80021EB
:1022D0004FF48020FFF78DF818E0E748844209D1D9
:1022E0000121C804FFF785F800214FF40020FFF713
:1022F00080F80BE0E148844208D101210805FFF78E
:1023000078F800214FF48010FFF773F810BD2DE925
:10231000F04786B005460E460024A24600BFA146FF
:102320000027B08900B100BF2F462C8A4CF6FF7001
:102330000440F08804432C82AC894EF6F31004402C
:10234000B08831890843718908430443AC81AC8A61
:102350004FF6FF400440B0890443AC8201A8FEF769
:10236000B4FFC248874202D1DDF810A001E0DDF8D9
:102370000CA0A88900F4004040B10AEBCA0000EBB1
:102380000A1031684900B0FBF1F807E00AEBCA0017
:1023900000EB0A1031688900B0FBF1F86420B8FB4B
:1023A000F0F004012009642101FB1089A88900F4E0
:1023B000004040B1322000EBC900B0FBF1F000F06A
:1023C0000700044308E0322000EB09106421B0FB51
:1023D000F1F000F00F0004432C8106B0BDE8F08757
:1023E0004FF41651016000218180C18001810C21D0
:1023F000418100218181704710B502460020108A7A
:102400004FF2FF0318400B884C8823438C882343EA
:10241000CC8823431843108210BD002101804180E5
:102420008180C180704721B1828942F4005282814B
:1024300004E082894DF6FF731A4082817047F0B53F
:102440000346002400260025002040F66A17B94202
:1024500000D100BF1846C1F3421401F01F06012746
:1024600007FA06F5012C01D10C3004E0022C01D151
:10247000103000E014301AB107682F43076002E003
:102480000768AF430760F0BD1AB1838A0B438382AC
:1024900002E0838A8B4383827047028A4FF6F0738F
:1024A0001A400282028A0A430282704782894FF2EE
:1024B000FF731A40828182890A438281704721B169
:1024C000828942F00202828104E082894FF6FD7324
:1024D0001A4082817047028A4FF6DF731A400282E7
:1024E000028A0A430282704721B1028A42F4804282
:1024F000028204E0028A4BF6FF731A4002827047A0
:1025000002460020B1F5007F00D100BF13880B40C8
:102510000BB1012000E00020704770B504460D4665
:10252000574EC5F30800A08000E0761E80212046AB
:10253000FFF7E6FF08B9002EF7D170BD10B50446CD
:1025400000BF20212046FFF7DBFF0028F9D0A0883C
:10255000C0F3080010BD818941F0010181817047FD
:10256000028BD2B20283028B42EA012202837047BD
:10257000028B02F47F420283028B0A43028370477C
:1025800021B1828A42F02002828204E0828A4FF6E0
:10259000DF731A408282704721B1828A42F01002B2
:1025A000828204E0828A4FF6EF731A40828270477B
:1025B00021B1828A42F00802828204E0828A4FF6C8
:1025C000F7731A408282704721B1828942F4004237
:1025D000828103E08289C2F30E028281704721B1B9
:1025E000828A42F40062828204E0828A4FF2FF73A0
:1025F0001A4082827047828A4FF6FB731A408282A9
:10260000828A0A438282704721B1828A42F00202A2
:10261000828204E0828A4FF6FD731A4082827047FC
:1026200001F40072B2F5007F00D100BFCA430280FE
:10263000704770B50246002400230025002040F6B4
:102640006A16B14200D100BFC1F3421501F01F0369
:10265000012606FA03F3012D02D19689334013E0D7
:10266000022D0FD1168A33400EE0000000380140E1
:102670000044004000480040004C00400050004032
:10268000FFFF4F00968A33400C12012606FA04F42D
:102690001688344013B10CB1012000E0002070BD59
:1026A00010B50022002340F66A14A14200D100BFF9
:1026B0000A1201249440A3B2DC43048010BD000040
:1026C00001684FF6FE721140016000210160416017
:1026D0008160C1608D49884208D18C4908394968B8
:1026E00041F00F01894A083A51608AE08749143164
:1026F000884208D185490839496841F0F001834A88
:10270000083A51607DE081492831884208D17F49EB
:102710000839496841F470617C4A083A516070E0B8
:102720007A493C31884208D178490839496841F4EE
:102730007041764A083A516063E0744950318842EA
:1027400008D172490839496841F470216F4A083A42
:10275000516056E06D496431884208D16B490839AF
:10276000496841F47001694A083A516049E0674993
:102770007831884208D165490839496841F070616B
:10278000624A083A51603CE06149884206D1011F23
:10279000096841F00F01021F116032E05C491431F9
:1027A000884208D15A49091F096841F0F001584A86
:1027B000121F116025E056492831884208D154493A
:1027C000091F096841F47061514A121F116018E035
:1027D0004F493C31884208D14D49091F096841F4ED
:1027E00070414B4A121F11600BE049495031884239
:1027F00007D14749091F096841F47021444A121F53
:102800001160704710B50022026847F6F0739A43D2
:102810000C6A8B6823430C6923434C6923438C69FE
:102820002343CC6923434C6A23438C6A23431A43D2
:102830000260CB6843600B6883604B68C36010BD67
:102840000021016041608160C1600161416181617D
:10285000C161016241628162704721B1026842F048
:102860000102026004E002684FF6FE731A40026043
:1028700070471AB103680B43036002E003688B439F
:1028800003607047416070470146486880B27047F6
:1028900001460020002201F080531BB11C4B083B75
:1028A0001A6802E0194B083B1A6802EA01030BB1EF
:1028B000012000E00020704700F0805119B1144958
:1028C000091F086002E01149083948607047014655
:1028D0000020002201F080531BB10D4B083B1A6809
:1028E00002E00A4B083B1A6802EA01030BB101201F
:1028F00000E00020704700F0805119B10449091F21
:10290000086002E001490839486070470800024049
:10291000080402400E49086070470D49486070473E
:102920000B49886070474AF6AA2009490860704739
:102930004CF6CC4006490860704701460020044A26
:10294000D2680A400AB1012000E000207047000070
:102950000030004010B50446BE48844208D1012131
:102960008014FEF739FD0021A014FEF735FD16E0B6
:10297000B948844208D101210014FEF73AFD002134
:102980002014FEF736FD0AE0B448844207D1012145
:10299000C013FEF72EFD0021E013FEF72AFD10BD47
:1029A00010B50022028802F441520B884C88234360
:1029B0008C882343CC8823430C8923434C892343AD
:1029C0008C892343CC8923431A430280838B4FF2A3
:1029D000FF74234083830B8A038210BD2DE9F04FDF
:1029E00085B005460C464FF0000902274FF000085D
:1029F0004FF0010B0026B246A88B4FF24001084071
:102A0000A88302202884B5F81C90A068022801D170
:102A100000BF38E0A08810B94FF0010B01E04FF083
:102A2000020B8D48854200D100E000BF6846FEF7EA
:102A30004CFCDDF800A0E088B0F5007F0AD14FEA39
:102A40001A2000EB80004000A168B0FBF1F0401DAF
:102A500086B20BE04FEA4B10BAFBF0F000EB8000BF
:102A60004000A168B0FBF1F0401D86B20A20B6FB21
:102A7000F0F606F00108A6EB0800C0F34F074FF68A
:102A8000FF7000EA0828022F01DBFF2F02DD02277A
:102A90004FF00008E08840EA080038432884A08806
:102AA000A1890843618808432188084340F40060F5
:102AB00040EA0909A5F81C9005B0BDE8F08F002197
:102AC000018041808180C180018141818181C181FA
:102AD0000721018270470021018041808180C180EF
:102AE0000221816000218181704721B1028842F07A
:102AF0004002028004E002884FF6BF731A40028051
:102B0000704721B1828B42F48062828304E0828B21
:102B10004FF6FF331A408283704730B500240023FC
:102B20000C110125A540ABB21AB185881D438580E3
:102B300002E085889D43858030BD1AB183880B43B0
:102B4000838002E083888B43838070478181704754
:102B50000146888970474FF6FF62914204D002888F
:102B600042F48072028004E002884FF6FF631A404C
:102B70000280704721B1828842F00402828004E022
:102B800082884FF6FB731A408280704702884FF2AA
:102B9000FF731A40028002880A430280704701884E
:102BA00041F480510180704721B1028842F4005203
:102BB000028004E002884DF6FF731A4002807047DD
:102BC00002460020012901D0108B00E0908A704756
:102BD0000146088A7047B1F5804F04D1028842F45B
:102BE0008042028004E002884BF6FF731A400280A4
:102BF00070470246002013890B400BB1012000E012
:102C000000207047CA4302817047F0B50246002099
:102C100000240023002501F00F070126BE40B4B2B6
:102C20000B1101269E40B3B2968806EA0305168969
:102C3000264016B10DB1012000E00020F0BD10B516
:102C4000002201F00F040123A3409AB2D343038171
:102C500010BD00000030014000380040003C004042
:102C60000CB50020019000906C48006840F4803062
:102C70006A49086000BF6948006800F400300090AD
:102C80000198401C0190009818B90198B0F5A06F08
:102C9000F1D16248006800F4003010B101200090CA
:102CA00001E0002000900098012843D15C480068B2
:102CB00040F010005A4908600846006820F0030000
:102CC00008600846006840F0020008605348406809
:102CD000524948600846406848600846406840F4E9
:102CE000806048600846406820F47C1048600846D0
:102CF000406840F4E81048600846006840F0807082
:102D0000086000BF4548006800F000700028F9D056
:102D10004248406820F00300404948600846406847
:102D200040F00200486000BF3C48406800F00C00E2
:102D30000828F9D10CBD10B5FFF792FF10BD10B5F2
:102D40003648006840F00100344908600846406891
:102D50003449084031494860084600683249084013
:102D60002E4908600846006820F480200860084664
:102D7000406820F4FE0048604FF41F008860FFF7B1
:102D8000DAFF4FF000602949086010BD10B500213E
:102D900000200022214B5B6803F00C0121B10429C3
:102DA00006D0082928D107E0214B224C236027E0D8
:102DB0001F4B204C236023E0184B5B6803F470101A
:102DC000164B5B6803F48032022303EB904022B978
:102DD000194B4343174C23600DE0104B5B6803F421
:102DE000003323B1144B4343124C236003E0104BD8
:102DF0004343104C236003E00D4B0E4C236000BF97
:102E000000BF064B5B68C3F303130C4CE15C094B3A
:102E10001B68CB40074C236010BD0000001002402F
:102E2000002002400000FFF8FFFFF6FE08ED00E082
:102E300000127A001400002000093D001800002054
:102E400001F0E5FB00200449087000F040FF01E0BC
:102E500001F09FFCFCE7000028000020704700BF45
:102E6000FEE700BFFEE700BFFEE700BFFEE77047DA
:102E700070477047704710B5FD48FE49097830F833
:102E80001100401CFA49FB4A127821F81200012077
:102E9000FDF785FC10BD10B5F748F649097830F804
:102EA0001100401CF449F34A127821F81200022064
:102EB000FDF775FC10BD7047704710B54FF48020CA
:102EC00001F02FFDED480BF0DCFBEC48C07800F082
:102ED000080020B114214FF4802001F0FAFCE748EB
:102EE000C07800F0100028B132214FF4002001F02A
:102EF000F0FC09E0E148C07800F0200020B1142186
:102F00004FF4802001F0E5FCDC480BF0BAFB102008
:102F1000FDF745FC10BD10B540F22551D848FFF72C
:102F200088FBB8B10020D7490870D548FFF706FBE9
:102F3000C1B2D54802780078401CD34B1870D348F2
:102F4000815440F22551CE48FFF7AAFB5021402082
:102F500001F0BFFC10BD10B54FF40050FFF7B7FCF7
:102F6000F0B100BF4021CA48FFF7CAFA0028F9D0E3
:102F70004FF48050FFF7A0FCC5480088C448001DEE
:102F8000008800228021C248FFF77EFA0021C14854
:102F9000FFF763FC0020C04908700120BF4908709A
:102FA00010BD10B540F22441B948FFF742FB58B3B9
:102FB0000021B8481430FFF750FC4FF48030FFF781
:102FC0007BFCB4481430FFF75FFC4042B449087002
:102FD0004FF48070AF494439C865B1480278B149AF
:102FE000B1480CF03CFEAA480088A948001D0088A2
:102FF0000121A8481430FFF730FC0020A7490870D1
:103000000321022001F065FC10BD10B54FF00070E7
:10301000FFF75DFCF8B100BF4021A448FFF770FA4C
:103020000028F9D04FF08070FFF746FC9F480088D9
:103030009E48001D0088002280219C48FFF724FA4A
:10304000002194483C30FFF708FC002098490870A4
:1030500001209849087010BD10B540F224419348F2
:10306000FFF7E7FA58B300218A482830FFF7F5FB4D
:103070004FF48010FFF720FC86482830FFF704FC4F
:1030800040428D4908704FF4807082494439086786
:103090008948027889498A480CF0E1FD8348008814
:1030A0008248001D008801217A482830FFF7D5FBAF
:1030B0000020804908700321082001F00AFC10BD9F
:1030C00010B52020FFF703FC10B300BF40216C486F
:1030D000FFF716FA0028F9D01020FFF7EDFB68483B
:1030E00000886748001D0088002280216448FFF79F
:1030F000CBF9002167482838FFF7AFFB0020714962
:10310000087001205F49087081026F48FDF73DFF9C
:1031100010BD10B56D48FFF7DAFB08B300BF4021C2
:103120006B48FFF7EDF90028F9D06A48FFF7C4FBB8
:10313000674800886648001D008800228021644896
:10314000FFF7A2F900216448FFF787FB00206349DD
:10315000087001206249087041026248FDF715FFBE
:1031600010BD10B540F224415948FFF762FA50B340
:10317000002159482838FFF770FB5B48FFF79CFB9C
:1031800055482838FFF780FBC0F180005749087088
:1031900080205149243908605448027854495548E0
:1031A0000CF05DFD4A4800884948001D0088012157
:1031B00049482838FFF751FB00204949087003218E
:1031C000802001F086FB10BD10B540F225514A4821
:1031D000FFF72FFAC8B10020484908704648FFF7AA
:1031E000ADF94749474A1278885446480078401C50
:1031F0004449087040F225513F48FFF751FA1E211B
:103200004FF4806001F065FBACE040F227713A4872
:10321000FFF70FFA50B33C4802780078401C3A4B55
:1032200018703A48815C3448FFF777F936480078DF
:103230003749097888421ADB002240F227712E486C
:10324000FFF7FDF840F227712B48FFF729FA01221A
:1032500040F226612848FFF7F2F84FF480712148C8
:10326000FDF793FE00202849087053E05AE079E00A
:1032700014E90020F80300208EE900208C0E0020C5
:103280000048004037000020390000200C0A0020D0
:10329000003801404400024033000020320000208A
:1032A000340000200C080020010F002000440040E2
:1032B0002E0000202D0000202F0000200C060020F2
:1032C000811000203800002000140140000002108E
:1032D000004C004000000110580402403D00002056
:1032E0003C000020000C0140000100103E000020C6
:1032F0000C0B0020811300200050004041000020F2
:103300000C0D002043000020440000208C0D002004
:1033100045000020814908700120814908708149D9
:1033200008701FE040F226617F48FFF782F9C8B1BC
:10333000002240F226617C48FFF781F840F22661C6
:103340007948FFF7ADF94FF480717848FDF71DFE1D
:103350000020774908707149087001207049087091
:103360007049087010BD10B501218807FEF777FF7E
:10337000F8B170480078401C6E4908700846007823
:103380003C2801DD0020087000206B49694A127852
:1033900021F812006949674A127821F81200684939
:1033A000644A127821F8120001218807FEF768FFAD
:1033B00014E002214807FEF752FF01280ED1022136
:1033C0008007FEF75DFF5D485A49097830F8110023
:1033D000401C5A49574A127821F8120010BD10B506
:1033E0005848C07B12287DD104215748FEF737FF8B
:1033F000012876D104215448FEF742FF00205349AA
:10340000087053480078D0B94F482030008840F009
:1034100020004D49203108804B48FEF704FF4D49FC
:10342000088001204C490870494908704B480078D1
:10343000401C4A49087000204949087051E044483E
:10344000007801284DD146480078401C4449087056
:103450000020424908703C48FEF7E5FE41490880DB
:10346000084600883B49098888420ADD3D480088B3
:1034700038490988401A3C490860012036490870DB
:103480000CE0344800884FF6FF71081A3549098866
:1034900008443549086001202F49087033480078F6
:1034A00033490978884202DB0020304908702E48F1
:1034B000006849F29661884210D22B480068B0F546
:1034C000007F0BD3284800682A49284A127841F81F
:1034D000220026480078401C2449087000201C491E
:1034E000087000E019E001211748FEF7B8FEA0B10E
:1034F00001211548FEF7C4FE17480078401C164904
:10350000087016480078052801DD00BFFEE7144862
:103510000078052801DD00BFFEE710BD4500002052
:10352000420000204100002000500040000C0140FB
:1035300044000020F803002014E900209AE800204D
:103540008EE900208C000020000C0040FA030020CF
:10355000540000205000002057000020550000209B
:1035600056000020520000204C000020580000208F
:10357000F903002008EA002010B5FDF7A5FD4FF47F
:103580008030FDF7C1FDFDF7FEFDFD4908700846DE
:103590000078012826D10020FDF73BFE0020FDF732
:1035A0004AFE4FF48060FDF73DFE0220FDF700F972
:1035B0001020FDF711F94FF4E0114FF48030FDF7C2
:1035C0000BFE0120FDF714FE00BF3920FDF7BFFD03
:1035D0000028FAD00220FDF70EFE00BFFDF714FE12
:1035E0000828FBD14FF44040FDF740FE10BD08B560
:1035F00001217D20FDF7D6FE01210820FDF7E7FC23
:103600000121E048FDF7E3FC0120ADF800001020A7
:103610008DF8030003208DF802006946DA48FDF7B3
:1036200005FC0121D848FDF7B0FC4020ADF80000B2
:1036300010208DF8030003208DF802006946D2485F
:10364000FDF7F4FB0121D148FDF79FFC4FF48040CA
:10365000ADF8000010208DF8030003208DF8020063
:103660006946CB48FDF7E2FB4FF48041C848FDF7BF
:103670008CFC4FF40050ADF8000010208DF80300D2
:1036800003208DF802006946C148FDF7CFFB4FF4D7
:103690000051BF48FDF779FC4FF40040ADF8000041
:1036A00010208DF8030003208DF802006946B84809
:1036B000FDF7BCFB4FF40041B548FDF766FC4FF445
:1036C0000070ADF8000018208DF8030003208DF87D
:1036D00002006946AF48FDF7A9FB4FF48060ADF8E2
:1036E000000004208DF803006946AA48FDF79EFB00
:1036F0002020ADF8000018208DF8030003208DF87D
:1037000002006946A248FDF791FB4020ADF8000099
:1037100004208DF8030069469D48FDF787FB1020C3
:10372000ADF8000018208DF8030003208DF802008A
:1037300069469748FDF77AFB10219548FDF725FC6F
:103740000820ADF8000004208DF803006946904879
:10375000FDF76CFB8020ADF8000018208DF8030009
:1037600003208DF8020069468948FDF75FFB802140
:103770008748FDF708FC4FF48070ADF80000182072
:103780008DF8030003208DF8020069468048FDF79C
:103790004DFB4FF40070ADF8000004208DF80300DD
:1037A00069467B48FDF742FB4FF48060ADF80000AE
:1037B00010208DF8030003208DF80200694674483C
:1037C000FDF734FB4FF48060ADF8000018208DF851
:1037D000030003208DF8020069466F48FDF726FBC1
:1037E0004FF40060ADF8000004208DF80300694636
:1037F0006948FDF71BFB4FF40070ADF80000102086
:103800008DF8030003208DF8020069465F48FDF73C
:103810000DFB4FF48050ADF8000018208DF8030028
:1038200003208DF8020069465B48FDF7FFFA04208B
:10383000ADF800008DF8030069465548FDF7F6FA2B
:103840004FF48070ADF8000010208DF803000320C5
:103850008DF8020069464D48FDF7E8FA4020ADF8C2
:10386000000010208DF8030003208DF80200694647
:103870004648FDF7DBFA40214448FDF786FB7C20F3
:10388000ADF8000048208DF8030069463E48FDF77A
:10389000CDFA1020ADF800008DF8030003208DF85C
:1038A000020069463B48FDF7C1FA10213948FDF78F
:1038B0006AFB1020ADF8000048208DF8030069462F
:1038C0003548FDF7B3FA8020ADF8000010208DF8E0
:1038D000030003208DF8020069462C48FDF7A6FA84
:1038E0000620ADF8000000208DF8030069462A4844
:1038F000FDF79CFA0820ADF8000010208DF80300B9
:1039000003208DF8020069462348FDF78FFA012055
:10391000ADF8000004208DF8030003208DF80200AC
:1039200069461D48FDF782FA0320ADF80000042027
:103930008DF8030003208DF8020069461548FDF755
:1039400075FA8020ADF8000010208DF803000320E8
:103950008DF8020069460C48FDF768FA08BD08B505
:1039600001211020FDF71EFD0120ADF8000004200C
:103970008DF8030069460848FDF758FA08BD0000B5
:103980005B0000203000140000180140000C0140D2
:1039900000140140000801400010014008B5012159
:1039A0001020FDF7FFFC0120ADF8000010208DF87D
:1039B000030003208DF802006946FE48FDF736FA41
:1039C00008BD08B501210820FDF7ECFC4FF40050BC
:1039D000ADF8000010208DF8030003208DF80200E0
:1039E0006946F548FDF722FA08BD1CB51020FCF722
:1039F000D6FE04210220FDF72FFB102000900020AE
:103A00008DF804000C208DF8050001208DF80600CB
:103A10006846FCF74DFE1CBD08B54FF4A060FCF7EE
:103A2000A3FB25208DF8000001208DF801008DF802
:103A300002008DF803006846FCF79BFB26208DF8FA
:103A4000000001208DF801008DF802008DF80300C0
:103A50006846FCF78EFB27208DF8000001208DF8CA
:103A600001008DF802008DF803006846FCF781FB29
:103A700034208DF8000002208DF8010001208DF81F
:103A800002008DF803006846FCF773FB35208DF8C3
:103A9000000001208DF801008DF802008DF8030070
:103AA0006846FCF766FB0A208DF8000003208DF8BD
:103AB000010001208DF802008DF803006846FCF734
:103AC00058FB11208DF8000001208DF80100022024
:103AD0008DF8020001208DF803006846FCF749FBD1
:103AE0001C208DF8000001208DF801008DF80200E7
:103AF0008DF803006846FCF73CFB32208DF800008F
:103B000000208DF801008DF8020001208DF80300DF
:103B10006846FCF72EFB00214FF00060FCF75BFBD2
:103B200008BD00B591B001210846FDF72EFC01212A
:103B30004802FDF737FCA148FEF7C2FDA0480690F9
:103B4000A0480790002008900220099000200A90C9
:103B500080200B9040000C9080000D9020200E9053
:103B600000020F900020109006A99448FEF74AFE2C
:103B70000020019001208DF808008DF809004FF415
:103B8000602003900020049002208DF8140001A909
:103B90008B484C38FCF77DFB072301220B2188481A
:103BA0004C38FCF70EFC072302220C2184484C38C9
:103BB000FCF707FC012182484C38FCF7A1FB0121EE
:103BC0007F484C38FCF791FB7D484C38FCF7AFFB45
:103BD00000BF7B484C38FCF7AFFB0028F9D1784890
:103BE0004C38FCF7B3FB00BF75484C38FCF7B3FB0F
:103BF0000028F9D111B000BD1FB501210805FDF75E
:103C0000DEFB4FF4165000900020ADF80400ADF834
:103C10000600ADF808006C48C07E0D280DD14FF4A9
:103C2000166000904FF48050ADF804000020ADF80D
:103C300006004FF48060ADF808006348C07E0E288F
:103C400007D06148C07E102803D05F48C07E11288D
:103C500009D14FF4166000900020ADF80400ADF8D3
:103C60000600ADF808000020ADF80C000C20ADF8FF
:103C70000A0069465548FEF74AFB40F22551534871
:103C8000FEF7CEFC012240F225515048FEF7D7FB4B
:103C900001214E48FEF7C7FB1FBD10B50120FDF7FF
:103CA00007FB00BF6120FDF752FA0028FAD045F269
:103CB0005550FEF72FFE0320FEF72FFE40F6B830DA
:103CC000FEF72EFEFEF72FFEFEF732FE10BD00B50A
:103CD00087B0012141F20500FDF764FB3C48007804
:103CE000B8B1A020ADF8040010208DF80700032023
:103CF0008DF8060001A93748FDF798F84020ADF887
:103D0000040004208DF8070001A93248FDF78EF861
:103D100037E000213048FEF7E8FEE020ADF804006F
:103D200018208DF8070003208DF8060001A9294806
:103D3000FDF77CF80020ADF808004FF48270ADF874
:103D40000A000020ADF80C00ADF80E000120ADF81F
:103D500010004002ADF812003820ADF81400002029
:103D6000ADF816000720ADF8180002A91A48FEF7B2
:103D700017FE01211848FEF7B8FE01211648FEF78C
:103D8000F9FE64200AF0D2FC07B000BD00B587B090
:103D900001210520FDF706FB01218803FDF702FB49
:103DA0004FF48060FCF7E0F90E208DF81800012038
:103DB00014E0000000100140000C01400800024027
:103DC0004C2401405C0000208C000020005000408A
:103DD0005A00002000080140003001408DF8190011
:103DE0008DF81A008DF81B0006A8FCF7C2F92520F3
:103DF0008DF8180001208DF819008DF81A008DF843
:103E00001B0006A8FCF7B5F948208DF817004FF401
:103E10008060ADF8140005A9FE48FDF707F80320FF
:103E20008DF8160018208DF817004FF40070ADF8CB
:103E3000140005A9F748FCF7F9FF4FF4165001905C
:103E40000020ADF80800ADF80A00ADF80C00F2480B
:103E50000078032809D14FF4E13001900020ADF83B
:103E60000800ADF80A00ADF80C00EB48C07E0F2842
:103E700009D14FF4165001900020ADF80800ADF8BC
:103E80000A00ADF80C000020ADF810000C20ADF8D1
:103E90000E0001A9E148FEF73AFA012240F224415E
:103EA000DE48FEF7CCFA0121DC48FEF7BCFA01221D
:103EB0008021DA48FEF7E8FA01224021D748FEF7D0
:103EC000E3FA07B000BD00B58BB001210846FDF74D
:103ED0005CFA0021D248FEF7C0FCD148FEF7F0FBA7
:103EE000CE48001D0090CF480190102002900001A4
:103EF00003900020049080200590002006900790F9
:103F000008904FF44050099000200A906946C44838
:103F1000FEF778FC4FF48050FEF7CEFC0021C0483D
:103F2000FEF79BFC01220221BD48FEF7A2FC002106
:103F3000BB481430FEF791FCB9481430FEF7C0FBC3
:103F4000B648001D0090B8480190002002904FF440
:103F5000807003900020049080200590002006903F
:103F6000079008904FF44050099000200A9069464D
:103F7000AB481430FEF746FC4FF48030FEF79CFC53
:103F80000121A7481430FEF768FC0BB000BD00B556
:103F900087B001212120FDF705FA01214804FDF732
:103FA0000EFA4FF48060FCF7DFF811208DF818004E
:103FB00002208DF819008DF81A0001208DF81B00E1
:103FC00006A8FCF7D6F826208DF8180001208DF8F9
:103FD00019008DF81A008DF81B0006A8FCF7C9F827
:103FE00048208DF817004020ADF8140005A98F482F
:103FF000FCF71CFF03208DF8160018208DF8170021
:104000002020ADF8140005A98848FCF70FFF002018
:10401000ADF80800ADF80A00ADF80C004FF44070A0
:10402000ADF810000C20ADF80E004FF4E130019017
:1040300001A97F48FEF76BF9012240F224417C4838
:10404000FEF7FDF901217A48FEF7EDF90122802102
:104050007748FEF719FA012240217548FEF714FA55
:1040600007B000BD00B58BB001210846FDF78DF902
:1040700000216B483C30FEF7F0FB69483C30FEF70E
:104080001FFB6B48001D00906A48019010200290B1
:1040900000010390002004908020059000200690ED
:1040A000079008904FF44050099000200A9069460C
:1040B0005B483C30FEF7A6FB4FF08070FEF7FCFB40
:1040C000002157483C30FEF7C8FB0122022154482A
:1040D0003C30FEF7CEFB002151482830FEF7BDFBF7
:1040E0004F482830FEF7ECFA5148001D0090524826
:1040F0000190002002904FF4807003900020049003
:104100008020059000200690079008904FF44050C2
:10411000099000200A90694641482830FEF772FB5A
:104120004FF48010FEF7C8FB01213D482830FEF710
:1041300094FB0BB000BD00B587B001212020FDF736
:1041400031F901218804FDF73AF94FF48060FCF75A
:104150000BF80C208DF8180000208DF819000120B4
:104160008DF81A008DF81B0006A8FCF702F827202E
:104170008DF8180001208DF819008DF81A008DF8BF
:104180001B0006A8FBF7F5FF48208DF817004FF439
:104190000070ADF8140005A92448FCF747FE032081
:1041A0008DF8160018208DF817004FF48070ADF8C8
:1041B000140005A91D48FCF739FE4FF48050ADF8F6
:1041C00008000020ADF80A004FF48060ADF80C0044
:1041D0000020ADF810000C20ADF80E004FF4165082
:1041E000019001A91548FEF792F840F225511348B5
:1041F000FEF716FA012240F225511048FEF71FF98A
:1042000001210E48FEF70FF9002280210B48FEF72E
:104210003BF915E0000801408C0000200038014007
:10422000440002400C0900200C080020001401404A
:10423000004400400C0700200C060020004800400D
:1042400007B000BD00B58BB001210846FDF79DF811
:104250000021FE48FEF701FBFC48FEF731FAFC485E
:104260000090FC48019010200290802003900020D4
:1042700004908020059000200690079008904FF44D
:104280004050099000200A906946F048FEF7BAFABB
:104290001020FEF711FB0021EC48FEF7DEFA0122A8
:1042A0000221EA48FEF7E5FA0BB000BD00B587B081
:1042B0000121C804FDF783F801210220FDF765F80C
:1042C00001211120FDF76EF84FF48060ADF8140065
:1042D00018208DF8170003208DF8160005A9DE4878
:1042E000FCF7A4FD4FF40060ADF8140004208DF835
:1042F000170003208DF8160005A9D748FCF796FD96
:104300004FF48060FBF730FF34208DF81800032055
:104310008DF8190001208DF81A008DF81B0006A8F1
:10432000FBF727FF3B208DF8180003208DF81900BC
:1043300001208DF81A008DF81B0006A8FBF719FF65
:104340004FF4E13001900020ADF80800ADF80A000C
:10435000ADF80C00ADF810000C20ADF80E0001A96E
:10436000BE48FDF7D4FF012240F22441BB48FEF7CE
:1043700066F80121B948FEF756F800228021B748B7
:10438000FEF782F801224021B448FEF77DF807B01D
:1043900000BD00B58BB0B148001D0090B048019041
:1043A000102002908020039000200490802005902F
:1043B00000200690079008904FF4005009900020CC
:1043C0000A906946A748FEF71DFAA748FEF774FA57
:1043D0000021A448FEF741FA01220221A148FEF77C
:1043E00048FA9E48001D0090A048019000200290CD
:1043F00080200390002004908020059000200690EB
:10440000079008904FF40050099000200A906946E8
:1044100094482838FEF7F6F99548FEF74DFA012141
:1044200090482838FEF719FA012202218D482838D1
:10443000FEF71FFA0BB000BD00B587B0012108469A
:10444000FCF7BDFF4FF08040FDF710F841F61F402C
:10445000ADF810000020ADF8120042F20F70ADF878
:1044600014000020ADF8160004A94FF08040FDF7BD
:10447000D1F80220ADF806000020ADF80A000120B6
:10448000ADF80800ADF80C000020ADF8040001A95B
:104490004FF08040FDF751FB002202214807FDF755
:1044A00030FC002201218807FDF72BFC07B000BD7E
:1044B00000B587B001210820FCF781FF6D48FCF7AB
:1044C000D5FF4720ADF810000020ADF812004FF6E0
:1044D000FF70ADF814000020ADF8160004A965487F
:1044E000FDF798F80A20ADF806000020ADF80A00A4
:1044F0000120ADF808000020ADF80C000420ADF854
:10450000040001A95B48FDF718FB0022042159486B
:10451000FDF7F7FB002201215648FDF7F2FB07B03B
:1045200000BD3EB504460220FCF739F907208DF89E
:10453000080001208DF8090000208DF80A000CB158
:10454000012000E000208DF80B0002A8FBF711FE0F
:104550000220FCF724F901210020FCF77DFD022058
:10456000009000208DF804000C208DF805000CB19F
:10457000012000E000208DF806006846FCF798F85E
:104580003EBD3EB504460120FCF709F906208DF832
:10459000080001208DF8090000208DF80A000CB1F8
:1045A000012000E000208DF80B0002A8FBF7E1FDE0
:1045B0000120FCF7F4F800210220FCF74DFD01205A
:1045C000009000208DF804000C208DF805000CB13F
:1045D000012000E000208DF806006846FCF768F82E
:1045E0003EBD08B50020009002226946224809F02D
:1045F000FBF89DF80000FF2808D09DF80100FF2877
:1046000004D0DD221D491C4809F0EEF808BD10B5A4
:10461000FEF7B2FFFEF7EBFFFFF7E7F9FFF7FCF954
:10462000FFF7DFFFFFF7E8FAFFF751FBFFF735FB76
:10463000FFF777FA01211248FCF7A7FC4021114847
:10464000FCF7A3FC10484FF0E0211FE01C000240E3
:10465000044800408C0A002000100140004C00403B
:104660000C0C002058040240000001100C0B00202C
:1046700000010010000C004000B007088C00002072
:1046800000180140000C0140FEFFFF0048610020BF
:1046900088610520086100F0D6F8FFF709FFFFF7F1
:1046A000CBFEFFF773FBFFF70EFCFFF770FCFFF785
:1046B000D9FCFFF740FDFFF7C5FDFFF7F7FDFFF75A
:1046C00068FE4FF480610648FCF75FFC4FF4007110
:1046D0000448FCF75AFC012000F011F810BD00005E
:1046E00000140140000C014010B5AE48006818B13C
:1046F000AC48006808F0E2FB08F0C2FF10BDA94911
:1047000009680143A74A116070472DE9F041074647
:10471000012000F044F9A4480068002834D0A248E1
:10472000046800262EE00025A088B84202D80020A8
:10473000A08002E0A088C01BA080A08840B9E088CB
:1047400030B1206820B12068FFF7D9FFE088A08051
:10475000A08808B1206848B91EB99349A0680860CC
:1047600001E0A068B0602546A46801E02646A46880
:104770003DB1A88810B92868FFF7C1FF28460BF0A3
:10478000DBFF00BF002CCED1002000F008F9BDE80F
:10479000F08170B500240025012000F000F94FF0F1
:1047A000E02084698148B4FBF0F4814800688442C9
:1047B00008D27F480068051B7E48006828447D4970
:1047C000086015E07A480068844211D940F26540DB
:1047D00060436FF07F41A1EB80107449B0FBF1F0B2
:1047E000734909684518734800682844714908608E
:1047F000002000F0D4F815B12846FFF786FF01200D
:1048000000F0CDF86A4804606A4800686A49884246
:1048100009D368480068401A66490860674800681C
:10482000401C66490860002000F0B9F8FFF75CFF03
:1048300000205C49086070BD604A126802605D4AF1
:1048400012680A60704700205749086070470146A7
:10485000554A106804E002688A4200D102E080688C
:104860000028F8D100BF70472DE9F04107460E46F9
:104870003846FFF7ECFF04461CB1A6802046BDE891
:10488000F0810C200BF080FF0446A4B12760A680C5
:104890000020E080A0604448006810B942480460ED
:1048A00007E04148056800E0AD68A8680028FBD132
:1048B000AC602046E3E70020E1E700EB80029100D6
:1048C00000E0491E0029FCD1704708B100210160B9
:1048D000704770B504460D46012000F060F8294687
:1048E0002046FFF7C1FF0646002000F058F80EB141
:1048F000012070BD0020FCE770B506460D46012082
:1049000000F04DF829463046FFF7AEFF044604B1EB
:10491000E580002000F043F80CB1012070BD0020BC
:10492000FCE770B50546012000F039F82846FFF78E
:104930008EFF044614B12046FFF7C7FF002000F0A9
:104940002EF80CB1012070BD0020FCE770B50546C3
:104950000026012000F023F82846FFF778FF0446E0
:1049600004B1A688002000F01AF8304670BD70B57A
:104970000025012000F013F80B48046802E0681CD1
:10498000C5B2A468002CFAD1002000F008F828462F
:1049900070BD044909688143024A1160704780F381
:1049A000108870476400002060000020401901005A
:1049B000700000206C000020005C260568000020CC
:1049C0000246FF20FB4B1870FB4B18700020FB4B7E
:1049D000187019E012F8010BF64B1B785840F84B91
:1049E0001880F8481B88C05CF34B1B785840F14B8B
:1049F0001870F548F24B1B88C05CEF4B1870EF48FD
:104A00000078401CED4B1870EC4800788842E1DBE0
:104A1000E8480078E84B1B7840EA0320704770B5FF
:104A200005460C4629462046FFF7CAFF002858D104
:104A3000E648C07E0D2824D12078012821D1607855
:104A400003281ED1E249D4F803200A60C978090678
:104A5000DF4A927841EA0241DD4A527841EA022176
:104A6000DB4A127841EA02000009D94A1070010AB3
:104A7000517011460978D74A1173D5494978517355
:104A800000BFD248C07E0E2807D0D048C07E102874
:104A900003D0CE48C07E112823D12078012820D110
:104AA000607803281DD1CA49D4F803200A60097828
:104AB0000906C74A527841EA0241C54A927841EA5A
:104AC0000221C34AD27841EA0200C14A1070010AA9
:104AD000517011460978BF4A1173BD494978517325
:104AE00000BF70BD2DE9F04105460E4617461C4635
:104AF000032D14D1F1192246B7480BF0B0F8B7488E
:104B000004704FF48061B648FCF73DFA0120B549C6
:104B10000870012240F22771B348FDF790FC052D83
:104B200014D1F1192246B1480BF099F8B04804703D
:104B30004FF48071AF48FCF726FA0120AE490870A7
:104B4000012240F22771AD48FDF779FC012D0FD10C
:104B5000F1192246AA480BF082F8AA4804700020F6
:104B6000A9490870012240F22771A848FDF767FCA7
:104B7000022D0FD1F1192246A5480BF070F8A54877
:104B800004700020A4490870012240F22771A34854
:104B9000FDF755FC042D13D1F1192246A0480BF066
:104BA0005EF8A0480470E9019248FCF7ECF9002097
:104BB0009D490870012240F227719C48FDF73FFC97
:104BC000BDE8F08110B58148C07E0D2805D10823CD
:104BD000002297490520FFF785FF7C48C07E0E28FC
:104BE00007D07A48C07E102803D07848C07E1128AC
:104BF00005D1082300228F490520FFF773FF10BD60
:104C000010B504460120804908708B488464012255
:104C100080217E48FDF738FC012187484430FDF7AC
:104C20001CFE10BD10B5024602200CE00A2391FBC9
:104C3000F3F403FB1413303313540A2391FBF3F3FF
:104C4000D9B2431E58B20028F0DA10BDF0B50446C0
:104C50001546002604EBC40000EB0410774F07EB69
:104C6000800020F8135001B9012100220BE004EB71
:104C7000C40000EB0410714F07EB800030F8120005
:104C80000644501CC2B28A42F1DBB6FBF1F085B299
:104C90002846F0BD30B503460C4600210AE003EB80
:104CA000C30000EB0310654D05EB800020F81120D8
:104CB000481CC1B2A142F2DB104630BD2DE9F041E3
:104CC000B2B007460B461446002600210CE05C48B3
:104CD00030F817509D4200DA1D46A54200DD2546FA
:104CE0002DF81150481CC1B26429F0DB002116E0F8
:104CF000481CC2B20FE03DF811003DF8128040455B
:104D000007DB3DF811C03DF812002DF811002DF819
:104D100012C0501CC2B2642AEDDB481CC1B2642927
:104D2000E6DB282104E03DF811000644481CC1B22E
:104D30003C29F8DB1420B6FBF0F6B0B232B0BDE887
:104D4000F081FEB53F480078062880F0DE86DFE877
:104D500010F006008501FA03740418050B06002004
:104D6000394908701948007B01287BD11748C07B5E
:104D7000122877D008F092FE34490880084600884F
:104D80004FF6FF71884263D0304802782E48017890
:104D90000078401C2C4B18700E4842542B48008859
:104DA000010A184602780078401C1870094881549E
:104DB00057E057E0810000208200002080000020A2
:104DC00084000020F8120108F81101088C0000206E
:104DD000B703002026E800208C0A00203B000020BA
:104DE0000014014038000020004800408C0D0020D5
:104DF00045000020000C014042000020005000400F
:104E00000C0900203600002033000020003801404B
:104E10000C070020310000202E000020004400403C
:104E20000C0C0020400000203D000020004C004001
:104E3000FB1301080314010800000240821A00203D
:104E40005C0000209D0300209E030020A80300209A
:104E5000FD480078401CFC49087008460078401C5A
:104E60000870D0E2F948007B01280DD1F748C07BDB
:104E7000122809D1F4480078401CF349087008460C
:104E80000078401C0870ECE7F048007B05282CD126
:104E9000EE48C07B122828D008F049FEEC49088073
:104EA000084600884FF6FF71884214D0E848017820
:104EB000E54802780078401CE34B1870E5488154BF
:104EC000E3480088020A184601780078401C1870F0
:104ED000E048425408E0DC480078401CDA49087099
:104EE00008460078401C0870BBE7D848007B0528BE
:104EF0000DD1D648C07B122809D1D3480078401C78
:104F0000D149087008460078401C0870A9E7CF48CE
:104F1000007B062818D1D0480068CD490880084693
:104F20000278C94801780078401CC74B1870C948FE
:104F30004254C7480088010A184602780078401C8D
:104F40001870C44881548CE7C048007B072838D1CA
:104F50000021BF4A1180C1490978491CC8B209E043
:104F6000BF4931F81010BA4A12881144B84A11806A
:104F7000411CC8B23C28F3DD002009E0B84931F8F3
:104F80001010B34A12881144B14A1180411CC8B2B2
:104F9000B24909788842F1DBAD490A78AA490B7811
:104FA0000978491CA84C2170AA49CA54A849098803
:104FB0000A0A21460B780978491C2170A549CA5470
:104FC0004FE7A248007B082800D14AE79F48007BB2
:104FD0000A2830D19D48C07B12282CD008F0EBFD68
:104FE0009B490880084600884FF6FF71884218D018
:104FF00097480278944801780078401C924B1870CA
:105000009448425492480088010A18460278007871
:10501000401C18708F4881548D4800889149088041
:1050200008E089480078401C8749087008460078E5
:10503000401C087015E78548007B0A280DD183487D
:10504000C07B122809D180480078401C7E49087036
:1050500008460078401C087003E702E77B48C07BE5
:10506000022839D108F049FF7949088008460088AC
:105070004DF61611884202DB0846754908807448CF
:105080000278714801780078401C6F4B18707148A5
:1050900042546F480088010A184602780078401C84
:1050A00018706C48815408F00DFF69490880084663
:1050B0000278654801780078401C634B1870654899
:1050C000425463480088020A184601780078401C60
:1050D000187060484254C4E65C48C07B0A2847D137
:1050E00008F074FF5A490880084600884FF6FF719F
:1050F00088422BD056480178534802780078401CEB
:10510000514B18705348815451480088010A184681
:1051100002780078401C18704E488154524802783A
:10512000184601780078401C18704A4842544E488E
:105130000088010A184602780078401C187045481B
:105140008154434800884949088010E03E4800786F
:10515000401C3D49087008460078401C087008460D
:105160000078401C087008460078401C087078E6FB
:105170003648C07B0C287FD108F07BFF344908807B
:1051800008460088B0F5704F77DC3048007C00EBB3
:10519000C00101EB00102E490988A1EB80002C49C9
:1051A00008802A48407C00EBC00101EB0010284930
:1051B000098801EB800026490880084602782248C9
:1051C00001780078401C204B187022484254204837
:1051D0000088010A184602780078401C18701D48A3
:1051E000815421480178184602780078401C1870D4
:1051F000184881541C480088010A18460278007833
:10520000401C1870134881541148008817490880C1
:105210000846008842F27A31884247DB134800880A
:1052200042F64A31884241DC11480088401C10494E
:1052300008800E4801880F480D4A128820F8121085
:105240000B480088242819E09E0300208C000020D1
:10525000A803002026E8002000012242F8030020D5
:1052600014E90020F4030020F0030020F2030020E2
:10527000F603002036E800201CE016E019DD0021CE
:10528000002005E0FE4A32F810201144421CD0B242
:10529000FC4A12889042F5DBFA4A1288B1FBF2F21E
:1052A000F94B1A800022F74B1A8002E00020F549E2
:1052B0000880D6E5F548C07B052839D108F042FEC4
:1052C000F3490880084600884FF6FF7188421DD0D8
:1052D000EF480278EF4801780078401CED4B1870D9
:1052E000ED484254EA480088010A184602780078DE
:1052F000401C1870E848815418460078401C194634
:10530000087008460078401C087010E0E1480078FA
:10531000401CE049087008460078401C08700846A8
:105320000078401C087008460078401C0870ECE3C8
:10533000D648C07B062821D1D8480068D4490880C7
:1053400008460278D34801780078401CD14B187089
:10535000D1484254CE480088020A184601780078A5
:10536000401C1870CC48425418460078401C19461E
:10537000087008460078401C0870C6E3C348C07B2C
:10538000072841D10021C24A1180C5490978491C2A
:10539000C8B209E0C34931F81010BD4A128811445F
:1053A000BB4A1180411CC8B23C28F3DD002009E053
:1053B000BC4931F81010B64A12881144B44A118021
:1053C000411CC8B2B64909788842F1DBB0490A7875
:1053D000B0490B780978491CAE4C2170AE49CA54CB
:1053E000AB4909880B0A21460A780978491C2170C3
:1053F000A9498B5421460978491C2246117011464F
:105400000978491C117080E3A048C07B12287DD127
:105410000020A54908609D48407FA44908700846BF
:1054200000780C2801DA0C200870A0480078322897
:1054300002DD32209D4908709C48007882009C491A
:105440009C480AF00CFC00241FE0601CC5B216E06A
:10545000984850F82400974951F8251088420CD9F3
:10546000944830F8240086B2924850F825009149BB
:1054700041F82400084640F82560681CC5B28B48F6
:1054800000788542E4DB601CC4B28848007884421E
:10549000DBDB052409E0874850F8240082490968CD
:1054A000084481490860601CC4B280480078401FED
:1054B000A042F0DC7C4801684FF4AA7041437B486D
:1054C00000780A38C8225043B1FBF0F070490880D8
:1054D00008460088784908806D4801786D48027850
:1054E0000078401C6B4B18706B48815468480088EA
:1054F000010A184602780078401C187066488154EA
:1055000018460078401C1946087000E004E0084680
:105510000078401C0870F8E25C48C07B082811D174
:105520005C480078401C5B49087008460078401CC5
:10553000087008460078401C087008460078401C37
:105540000870E2E2E1E200205C4908704F48807C8C
:10555000082809D140F21952002158480078FFF775
:10556000ADFB5749088009E040F219524FF48371AE
:1055700052480078FFF7A2FB5149088051484F4933
:105580000978405C68B94E48028832214B4800785F
:10559000FFF780FB4A49088001214A48474A1278B0
:1055A00081543A48017D4848444A1278815447481A
:1055B000424A1278835C4448404A1278815C4048F1
:1055C00002883E480078FFF741FB3D4908800120F2
:1055D0003C493A4A127888543C4838490978405C3A
:1055E000401CC1B23948354A127881543349097890
:1055F000405C3549314A1278895C884204DB0020DE
:1056000032492E4A127888542D4800882049088053
:10561000084602781F4801780078401C1D4B18701E
:105620001D4842541A480088020A1846017800783A
:10563000401C18701848425467E201201F49087046
:105640001248407D082809D140F2195200211B4818
:105650000078FFF733FB1A49088009E040F219523D
:105660004FF4837115480078FFF728FB1449088030
:10567000144812490978405C50BB1148028828E060
:1056800036E80020F6030020F40300208C00002000
:10569000A80300209E03002026E8002004012142E8
:1056A000F80300208EE90020B0030020F903002059
:1056B00008EA0020F02B0020AE030020B6030020F3
:1056C000AA030020A50300209F030020A2030020BE
:1056D0000BE03221FA480078FFF7DCFAF94908803C
:1056E0000120F949F64A12788854F848C17DF848F3
:1056F000F34A12788154F748F14A1278835CF448EF
:10570000EF4A1278815CEF480288ED480078FFF795
:105710009DFAEC4908800120EB49E94A1278885447
:10572000EC48E7490978405C401CEA49E44A1278B1
:1057300088540846E2490978415CE548E04A127815
:10574000805C814204DB0021E248DD4A127881540A
:10575000DC480088E049088008460178DF48027884
:105760000078401CDD4B1870DD488154DA48008811
:10577000020A184601780078401C1870D848425434
:10578000C3E1D248007E04282CD1D048C07B122827
:1057900028D008F0EEFDD0490880084600884EF673
:1057A0006021884214DACC480278CC48017800782D
:1057B000401CCA4B1870CA484254C7480088010AA6
:1057C000184602780078401C1870C548815408E0DB
:1057D000C2480078401CC149087008460078401C47
:1057E000087092E1B948007E05282CD1B748C07BEB
:1057F000122828D008F0F8FDB7490880084600882C
:105800004FF6FF71884214D0B3480178B34802784C
:105810000078401CB14B1870B1488154AE480088E4
:10582000010A184602780078401C1870AC48815470
:1058300008E0AA480078401CA8490870084600788B
:10584000401C087061E1A148007E062818D1A548D7
:105850000068A149088008460178A04802780078CD
:10586000401C9E4B18709E4881549B480088020A39
:10587000184601780078401C18709948425444E159
:105880009248007E072838D10021934A118096491A
:105890000978491CC8B209E0944931F810108E4AC1
:1058A000128811448C4A1180411CC8B23C28F3DD97
:1058B000002009E08D4931F81010874A1288114400
:1058C000854A1180411CC8B2874909788842F1DBBA
:1058D00081490A7881490B780978491C7F4C2170ED
:1058E0007F49CA547C4909880A0A21460B780978FD
:1058F000491C21707A49CA5407E17448007E08287F
:1059000000D102E17148007E0A282CD16F48C07B8B
:10591000122828D008F0BAFD6F4908800846008890
:105920004FF6FF71884214D06B4801786B480278BB
:105930000078401C694B187069488154664800889B
:10594000020A184601780078401C187064484254D6
:1059500008E062480078401C6049087008460078FA
:10596000401C0870D1E0D0E05848C07E0B2803D01E
:105970005648C07E10287BD15D4800885D49098863
:10598000884273DB5A4800885A490988401A5A49A4
:10599000088002204A49087057480088B0F5967F71
:1059A00006DA00204849464A12788854524908804D
:1059B000454843490978405C68B94F48028832211C
:1059C0003F480078FFF766F94B49088001213E48BF
:1059D0003B4A127881543D48417F3D48384A12780D
:1059E00081543C48364A1278835C3948344A1278EC
:1059F000815C4148028832480078FFF727F93E4928
:105A0000088034482E490978405C401C31492C4AB2
:105A10001278885408462A490978415C2C48284A5B
:105A20001278805C814204DB00202A49244A1278E3
:105A300088542648407B68B12448807B50B1234875
:105A4000807B2D49098848432049497B90FBF1F030
:105A500029490880284800881F490880084600789E
:105A60001F4988731C480088000AC8734DE0FFE78F
:105A70001648C07E132803D01448C07E112843D195
:105A80001248007F642148431C4908801C48008854
:105A90000988884203DD1948008819490880174899
:105AA000008817490988401A00B21649088008463C
:105AB00000780B49887313480088000AC87324E0F3
:105AC000B6030020AA030020A50300208C000020BC
:105AD0009F030020A2030020A80300209E030020B3
