:020000040800F2
:1000000068470020450100085D2E00085F2E0008AB
:10001000632E0008672E00086B2E00080000000009
:100020000000000000000000000000006F2E00082B
:10003000712E000800000000732E0008752E0008C5
:100040005F0100085F0100085F0100085F01000810
:100050005F0100085F010008772E0008972E000856
:100060005F0100085F010008C52E00085F0100085D
:10007000CB3000085F010008612F00085F01000815
:100080005F010008153000085F0100085F010008EB
:100090005F0100085F0100085F010008C12E000831
:1000A0005F0100085F0100085F0100085F010008B0
:1000B000573300085F0100085F0100085F01000876
:1000C0005F0100085F0100085F0100085F01000890
:1000D0005F010008AD2F000863300008212F0008E1
:1000E000C32E00085F0100085F0100085F010008DF
:1000F0005F0100085F0100085F0100085F01000860
:100100005F0100085F0100080F3400085F0100086C
:100110006D310008D33100085F0100085F0100085D
:100120005F0100085F0100085F0100081D31000841
:10013000DFF80CD010F0A2FC00480047412E000868
:10014000684700200648804706480047FEE7FEE76C
:10015000FEE7FEE7FEE7FEE7FEE7FEE7FEE7FEE777
:100160003F2D00083101000831490143314A116037
:10017000704770B5002100230F22C47804B32D4CC2
:10018000246804F4E064C4F5E064210AC1F10403C6
:10019000CA40447804FA03F18478144021430901E9
:1001A000254C0678A155047804F01F050124AC40C5
:1001B00005786D11AD0005F1E025C5F8004109E0B5
:1001C000047804F01F050124AC401C4D067876111C
:1001D00045F8264070BD1A4A0A400243154B1B1FC2
:1001E0001A60704739B1134A121D12680243114B4D
:1001F0001B1D1A6006E00F4A121D126882430D4B48
:100200001B1D1A607047042808D14FF0E0210969CE
:1002100041F004014FF0E022116107E04FF0E021CE
:10022000096921F004014FF0E022116170470000DC
:100230000000FA050CED00E000E400E080E100E0E1
:1002400080FFFF1F10B50446FA48844208D10121FF
:10025000401501F0C1F80021601501F0BDF817E06C
:10026000F548844208D10121001501F0B5F80021BC
:10027000201501F0B1F80BE0F048844208D10121CB
:10028000C80301F0A9F800214FF4004001F0A4F8E0
:1002900010BD30B50246002000235068E84C2040D5
:1002A0000D790C6844EA0524204350609068E54CC1
:1002B0002040D1E902542C434D7944EA45042043BF
:1002C0009060D06A20F470000C7C641EE4B223437A
:1002D00040EA0350D06230BD0021016001714171DC
:1002E0008160C16001210174704721B1826842F0D0
:1002F0000102826003E0826822F00102826070479E
:1003000021B1826842F48072826003E0826822F444
:1003100080728260704710B50023CBB21AB1446876
:100320001C43446002E044689C43446010BD816803
:1003300041F0080181607047014600208A6802F0A0
:1003400008020AB1012000E000207047816841F0F6
:10035000040181607047014600208A6802F00402AF
:100360000AB1012000E00020704721B1826842F408
:10037000A002826003E0826822F4A00282607047DB
:10038000014600208A6802F480020AB1012000E0E0
:100390000020704710B50A4600210023416821F46F
:1003A0006041531E41EA4331416010BD21B14268B2
:1003B00042F40062426003E0426822F4006242605C
:1003C0007047F0B504460D4600200021092D11DDCF
:1003D000E068A5F10A0606EB4607072606FA07F1CC
:1003E0008843A5F10A0606EB460603FA06F1084320
:1003F000E0600CE0206905EB4507072606FA07F1E7
:10040000884305EB450603FA06F108432061072AF5
:100410000FDA606B561E06EB86071F2606FA07F1F9
:100420008843561E06EB860605FA06F1084360630C
:1004300022E00D2A0FDA206BD61F06EB86071F2657
:1004400006FA07F18843D61F06EB860605FA06F181
:100450000843206310E0E06AA2F10D0606EB860770
:100460001F2606FA07F18843A2F10D0606EB860661
:1004700005FA06F10843E062F0BD21B1826842F45A
:100480008012826003E0826822F4801282607047EA
:100490000146C86C80B2704766484C3000687047AF
:1004A00021B1426842F48062426003E0426822F473
:1004B00080624260704721B1426842F480524260DB
:1004C00003E0426822F48052426070470A460021ED
:1004D000816821F4E04111438160704721B1826855
:1004E00042F40042826003E0826822F400428260AB
:1004F000704721B1826842F40212826003E0826890
:1005000022F4021282607047014600208A6802F4D9
:1005100000120AB1012000E000207047F0B5044647
:100520001546002000220026092911DDE068A1F10E
:100530000A0707EB470C072707FA0CF29043A1F1D3
:100540000A0707EB470703FA07F21043E0600CE0E5
:10055000206901EB410C072707FA0CF2904301EBED
:10056000410703FA07F210432061A06BC0F3015664
:10057000EF1C06F1010CA7EB0C0707EB870C1F27FC
:1005800007FA0CF29043EF1C06F1010CA7EB0C07E5
:1005900007EB870701FA07F21043A063F0BD10B51F
:1005A0000A4600210023816B21F44011531E41EAC9
:1005B0000351816310BD08B5002300930090009B98
:1005C0000B440093009B1A6008BD08B5024600204A
:1005D0000090009201F12800009B184400900098C0
:1005E000006880B208BD0A4600214168164B1940D8
:1005F0001143416070474162826270470A460021A0
:10060000416821F01F0111434160704740B1094921
:100610000831096841F40001064A0832116007E018
:1006200004490831096821F40001024A08321160C6
:10063000704700000024014000280140003C0140B8
:10064000FFFEF0FFFDF7F1FFFFFD3FFF0246002038
:1006500013680B400BB1012000E000207047CA4333
:100660000260704770B502460020002300240B1280
:100670005568CEB205EA060415681D4015B10CB1E7
:10068000012000E0002070BD00220A12D343036065
:1006900070470000002044490860091D0860091DDA
:1006A0000860091D086041483F49143108607047DF
:1006B00000213D498279002A3AD00A46126803682F
:1006C0009A430B461A600A1D126803689A430B1D71
:1006D0001A60027911440A6803681A430A60324AB0
:1006E0000832126803689A432F4B08331A601A1DA8
:1006F000126803689A432C4B0C331A604279102A13
:100700000ED11A1F126803681A43274B08331A6068
:100710001A1D126803681A43234B0C331A600DE04C
:100720002149427911440A6803681A430A6005E0C6
:10073000027911440A6803689A430A6070470021ED
:10074000016001710C2141710021817170471649CE
:10075000103109680143144A103211607047014694
:100760000020114A143212680A400AB1012000E048
:10077000002070470C491431086070470146002082
:100780000022094B1B6803EA0102074B14331B6864
:100790000B4013B10AB1012000E00020704702496C
:1007A000143108607047000000040140FFFF0F0093
:1007B00001460020FE4A106800F03800084310602F
:1007C0007047FB49096821F00801F94A1160114698
:1007D0000968014311607047F549096821F010016B
:1007E000F34A116011460968014311607047F148EE
:1007F000EF494860F04848607047EE48EC4948606F
:10080000ED4848607047EA48006940F08000E849D8
:1008100008617047E648006940F08000E4490861DB
:1008200070470420E249C96801F0010109B10120C3
:100830000EE0DF49C96801F0040109B1022007E0B8
:10084000DB49C96801F0100109B1032000E0042070
:10085000704700B502460423FFF7E3FF034603E0B9
:10086000FFF7DFFF0346521E012B01D1002AF7D10B
:1008700002B90523184600BD30B5044604254FF4DF
:100880003020FFF7E6FF0546042D17D1C848006960
:1008900040F00200C649086108464461006940F022
:1008A000400008614FF43020FFF7D3FF0546C048F1
:1008B000006941F6FD710840BD490861284630BD18
:1008C00010B504244FF43020FFF7C3FF0446042C76
:1008D00016D1B748006940F00400B54908610846E0
:1008E000006940F0400008614FF43020FFF7B1FF8D
:1008F0000446AF48006941F6FB710840AC49086105
:10090000204610BD00B502460423FFF78AFF0346C8
:1009100003E0FFF786FF0346521E012B01D1002A98
:10092000F7D102B90523184600BD10B504244FF4D1
:100930003020FFF7E7FF0446042C16D19C480069DD
:1009400040F004009A4908610846006940F0400000
:1009500008614FF43020FFF7D5FF04469448006942
:1009600041F6FB71084092490861204610BD002005
:100970008F49C96901F0020109B1012000E000209E
:10098000704730B5A5250424FFF7F1FF00B100251D
:100990004FF43020FFF75DFF0446042C3AD1854820
:1009A00083498860844888600846006940F02000D8
:1009B00008610846006940F0400008614FF43020AB
:1009C000FFF747FF0446042C1BD17948006941F624
:1009D000DF710840764908610846006940F0100060
:1009E000086176480580E002FFF733FF0446052CD6
:1009F00010D06F48006941F6EF7108406C490861FA
:100A000008E0052C06D06A48006941F6EF710840FD
:100A100067490861204630BD78B506460C46042576
:100A200000200090E802FFF714FF0546042D24D1B2
:100A30005F48006940F001005D4908613480E802C8
:100A4000FFF707FF0546042D10D1B01C0090200CC5
:100A500000990880E802FFF7FCFE0546544800694B
:100A600041F6FE7108405249086106E050480069AD
:100A700041F6FE7108404E490861284678BD70B5C0
:100A800004460D460426F002FFF7E3FE0646042E58
:100A900011D14748006940F00100454908612580AF
:100AA000F002FFF7D6FE06464148006941F6FE71A6
:100AB00008403F490861304670BD70B505460E4696
:100AC0000424E002FFF7C5FE0446042C17D1394880
:100AD00037498860384888600846006940F010004F
:100AE00008612E80E002FFF7B4FE0446052C06D014
:100AF0002F48006941F6EF7108402D4908612046F2
:100B000070BD2DE9F04304464FF6FF763746B046F8
:100B1000B1460425E443E6B2C4F30727C4F307480B
:100B20004FEA1469E802FFF794FE0546042D49D107
:100B300020481F498860204888600846006940F0C6
:100B400010000861FF2E06D01C4808300680E8021D
:100B5000FFF77FFE0546042D08D1FF2F06D017486A
:100B60000A300780E802FFF774FE0546042D0AD11B
:100B7000B8F1FF0F07D011480C30A0F80080E80250
:100B8000FFF767FE0546042D0AD1B9F1FF0F07D024
:100B90000A480E30A0F80090E802FFF75AFE05461A
:100BA000052D0FD00248006941F6EF71084007E0BB
:100BB0000020024023016745AB89EFCD00F8FF1FFD
:100BC000664908612846BDE8F08330B5054604242F
:100BD0004FF43020FFF73DFE0446042C41D160481D
:100BE0005E4988605F4888600846006940F02000E0
:100BF00008610846006940F0400008614FF4302069
:100C0000FFF727FE0446042C22D15448006941F620
:100C1000DF710840514908610846006940F0100042
:100C200008611DB100205049088002E0A5204E490E
:100C300008804FF43020FFF70CFE0446052C10D03E
:100C40004648006941F6EF7108404449086108E0F0
:100C5000052C06D04148006941F6DF7108403F4944
:100C60000861204630BDF0B505460E4617460424FF
:100C70003B483A4988603B488860E002FFF7E9FD5D
:100C80000446042C19D13548006940F0100033495E
:100C9000086147F0F800304328433349891C088035
:100CA000E002FFF7D6FD0446052C06D02B4800696C
:100CB00041F6EF710840294908612046F0BD2748F8
:100CC000C069800870472548006A704700202349A2
:100CD000096801F0200109B1012000E000207047FF
:100CE00029B11E4A126902431C4B1A6104E01B4AD7
:100CF00012698243194B1A6170470146002001298D
:100D000008D1164AD26902F001020AB1012008E0B6
:100D1000002006E0114AD2680A400AB1012000E032
:100D2000002070470D49C860704704200B49C9680E
:100D300001F0010109B101200EE00849C96801F084
:100D4000040109B1022007E00449C96801F010015B
:100D500009B1032000E00420704700000020024099
:100D600023016745AB89EFCD00F8FF1F10B504469E
:100D7000CC48844208D10121042000F02DFB002141
:100D8000042000F029FB46E0C748844208D1012135
:100D9000082000F021FB0021082000F01DFB3AE0B4
:100DA000C248844208D10121102000F015FB002127
:100DB000102000F011FB2EE0BD48844208D1012133
:100DC000202000F009FB0021202000F005FB22E09C
:100DD000B848844208D10121402000F0FDFA0021EA
:100DE000402000F0F9FA16E0B348844208D101210E
:100DF000802000F0F1FA0021802000F0EDFA0AE0F6
:100E0000AE48844207D10121801500F0E5FA0021A7
:100E1000A01500F0E1FA10BD10B50121084600F060
:100E2000DBFA0021012000F0D7FA10BD2DE9F041D6
:100E3000024600250026002000230024002791F808
:100E400003C00CF00F0591F803C00CF0100CBCF1BE
:100E5000000F03D091F802C04CEA050591F800C0DC
:100E6000BCF1000F31D0146800202BE04FF0010CD2
:100E70000CFA00F3B1F800C00CEA03069E4220D140
:100E800083004FF00F0C0CFA03F7BC4305FA03FC88
:100E90004CEA040491F803C0BCF1280F06D14FF0CE
:100EA000010C0CFA00FCC2F814C00AE091F803C06F
:100EB000BCF1480F05D14FF0010C0CFA00FCC2F850
:100EC00010C0401C0828D1D31460B1F800C0BCF198
:100ED000FF0F34DD546800202EE000F1080C4FF0C5
:100EE000010808FA0CF3B1F800C00CEA03069E42B0
:100EF00021D183004FF00F0C0CFA03F7BC4305FA25
:100F000003FC4CEA040491F803C0BCF1280F05D19E
:100F100000F1080C08FA0CF8C2F8148091F803C02C
:100F2000BCF1480F07D100F1080C4FF0010808FA96
:100F30000CF8C2F81080401C0828CED35460BDE8DD
:100F4000F0814FF6FF710180022181700421C17090
:100F500070470246002093680B400BB1012000E06F
:100F6000002070470146886880B270470246002022
:100F7000D3680B400BB1012000E000207047014610
:100F8000C86880B2704701617047416170470AB11B
:100F9000016100E041617047C16070474FF48032E9
:100FA0000A43826181618261826982697047024677
:100FB0000020434B18684FF68073184040EA021037
:100FC00008433F4B186070473E49C8617047F0B511
:100FD0000A46002300240021002500F00046B6F157
:100FE000004F02D1364EF16901E0354E7168C0F311
:100FF000034583B200F44016B6F5401F08D121F036
:1010000070612F4E766826F070662D4F7E6012E07C
:1010100000F48016B6F5801F06D1032606FA05F403
:10102000A14341F0706106E0460D360103FA06F671
:10103000B14341F0706122B1460D360103FA06F664
:10104000314300F00046B6F1004F02D11C4EF16171
:1010500001E01B4E7160F0BD30B500228B071C0F04
:101060000F2303FA04F2164B08338C1053F8243084
:101070009343134C08348D1044F8253023468C10CC
:1010800053F824308C07240F00FA04F423430C4C4B
:1010900008348D1044F8253030BD0A49DC31086031
:1010A0007047000000080140000C014000100140A2
:1010B0000014014000180140001C014000200140C4
:1010C0000000014000002042DF48006840F00100BD
:1010D000DD49086008464068DC490840DA49486054
:1010E00008460068DA490840D749086008460068A1
:1010F00020F4802008600846406820F4FE00486024
:101100004FF41F0088607047CF49096821F480318F
:10111000CD4A11601146096821F480211160B0F5B3
:10112000803F03D0B0F5802F0ED106E0C649096894
:1011300041F48031C44A116007E0C349096841F4B1
:10114000A021C14A116000E000BF00BF704710B588
:1011500001460022002300204A11012A02D1BA4C84
:10116000236806E0022A02D1B74C236A01E0B64C9C
:10117000636A01F01F02012494401C400CB101205D
:1011800000E0002010BD38B50020009000240025AC
:1011900000BF3120FFF7DBFF05460098401C0090A0
:1011A0000098B0F5A06F01D0002DF2D03120FFF7EC
:1011B000CEFF08B1012400E00024204638BD0146DE
:1011C0000020A14A106820F0F80040EAC100106039
:1011D0007047A04908607047024600209A4B586843
:1011E00020F47C1042EA01031843974B5860704783
:1011F00098490866704701460020934A506820F0DD
:1012000003000843506070478F48406800F00C00AE
:101210007047014600208C4A506820F0F0000843D7
:101220005060704701460020874A506820F4E06013
:1012300008435060704701460020834A506820F4FC
:10124000605040EAC1005060704729B17E4A527A2E
:1012500002437D4B5A7204E07B4A527A82437A4BB6
:101260005A7270477B49D8310860704701460020A8
:10127000754A506820F44040084350607047002190
:10128000714A20321170704A82F82010012802D071
:1012900004280AD104E001216B4A2032117005E0D4
:1012A0000521694A2032117000E000BF00BF70477D
:1012B0006949086070476449096A0143624A1162DA
:1012C0007047654944390860704730B500210022F5
:1012D000002400235C4D6D6805F00C0121B1042948
:1012E00005D0082923D105E05C4D056022E05B4D67
:1012F00005601FE0544D6D6805F47012524D6D6825
:1013000005F48034022505EB92421CB9544D554337
:1013100005600BE04C4D6D6805F400351DB1504D76
:101320005543056002E04D4D5543056002E04B4DCD
:10133000056000BF00BF444D6D6805F0F00109096C
:10134000484D6B5C0568DD4045603F4D6D6805F4B8
:10135000E061090A434D6B5C4568DD4085603A4DAC
:101360006D6805F46051C90A3E4D6B5C4568DD400F
:10137000C560354D6D6805F44041890B3A4D6B5C95
:10138000C568B5FBF3F5056130BD29B12E4A526938
:1013900002432D4B5A6104E02B4A526982432A4B87
:1013A0005A61704729B1284A92690243264B9A61D3
:1013B00004E0254A92698243234B9A61704729B120
:1013C000214AD2690243204BDA6104E01E4AD26905
:1013D00082431D4BDA61704729B11B4AD268024330
:1013E000194BDA6004E0184AD2688243164BDA607F
:1013F000704729B1144A12690243134B1A6104E081
:10140000114A12698243104B1A61704712494039E0
:10141000086070470F49C86470470B49C87170472E
:101420000948406A40F080700749486270470146A9
:101430000020054A92680A400AB1012000E000201D
:101440007047014988727047001002400000FFF8A1
:10145000FFFFF6FE000042428004424200127A0082
:1014600000093D00000000201000002010B50446D7
:10147000FE48844208D10121C014FFF7ADFF0021CE
:10148000E014FFF7A9FFC4E0B4F1804F08D10121B7
:101490000846FFF7AEFF00210120FFF7AAFFB8E0E2
:1014A000F348844208D101210220FFF7A2FF002166
:1014B0000220FFF79EFFACE0EE48844208D10121F4
:1014C0000420FFF796FF00210420FFF792FFA0E021
:1014D000E948844208D101210820FFF78AFF002152
:1014E0000820FFF786FF94E0E448844208D10121F8
:1014F0001020FFF77EFF00211020FFF77AFF88E021
:10150000DF48844208D101212020FFF772FF00212B
:101510002020FFF76EFF7CE0DA48844208D10121E9
:101520004014FFF759FF00216014FFF755FF70E0EA
:10153000D548844209D10121C804FFF74DFF00219D
:101540004FF40020FFF748FF63E0D048844209D100
:1015500001210805FFF740FF00214FF48010FFF73D
:101560003BFF56E0CA48844209D101214805FFF7F4
:1015700033FF00214FF40010FFF72EFF49E0C5486C
:10158000844208D101214020FFF733FF0021402091
:10159000FFF72FFF3DE0C048844208D101218020A1
:1015A000FFF727FF00218020FFF723FF31E0BB4832
:1015B000844208D101218015FFF71BFF0021A015EF
:1015C000FFF717FF25E0B648844209D1012108043E
:1015D000FFF702FF00214FF48030FFF7FDFE18E017
:1015E000B048844209D101214804FFF7F5FE0021EB
:1015F0004FF40030FFF7F0FE0BE0AB48844208D117
:1016000001218804FFF7E8FE00214FF48020FFF756
:10161000E3FE10BD00220288944B98420ED0994BF5
:1016200098420BD0B0F1804F08D0914B984205D032
:10163000904B984202D0904B984204D14FF68F7352
:101640001A404B881A438D4B984207D08C4B9842D6
:1016500004D04FF6FF431A40CB881A4302808B8890
:1016600083850B880385814B98420BD0854B98422C
:1016700008D08B4B984205D08A4B984202D08A4BB7
:10168000984201D10B7A038601238382704770B59B
:10169000002400220023058C4FF6FE763540058499
:1016A000028C8388048B4FF68F752C40B51E2C401E
:1016B0000D882C43751E2A400D892A434D882A43E4
:1016C0006A4DA8420BD06F4DA84208D0744DA84275
:1016D00005D0744DA84202D0734DA84213D14FF6E5
:1016E000F7752A404D892A434FF6FB752A408D88AD
:1016F0002A434FF6FF652B404FF6FF552B408D894F
:101700002B43CD892B4383800483CD888586028437
:1017100070BD70B5002400220023058C4FF6EF76D3
:1017200035400584028C8388048B48F6FF752C4075
:101730004FF6FF452C400D884FF6FF7606EA05254B
:101740002C434FF6DF752A400D8906EA05152A431A
:101750004D8806EA05152A43444DA84202D0494D5A
:10176000A8421DD14FF67F752A404D894FF6FF766E
:1017700006EA05152A434FF6BF752A408D8806EA0A
:1017800005152A434FF6FF352B404FF2FF752B40CE
:101790008D8906EA85052B43CD8906EA85052B430D
:1017A00083800483CD880587028470BD70B50024D2
:1017B00000220023058C4FF6FF6635400584028C1D
:1017C0008388848B4FF68F752C404FF6FC752C4028
:1017D0000D882C434FF6FF552A400D894FF6FF76B2
:1017E00006EA05252A434D8806EA05252A431F4DAA
:1017F000A84202D0234DA8421DD14FF2FF752A40C6
:101800004D894FF6FF7606EA05252A434FF6FF3548
:101810002A408D8806EA05252A434EF6FF752B409F
:101820004DF6FF752B408D8906EA05152B43CD89B2
:1018300006EA05152B4383808483CD88858702843F
:1018400070BD70B5002200230024058C4EF6FF7693
:1018500035400584038C8488828B48F6FF752A40C6
:101860004FF6FF452A400D8820E00000002C014083
:101870000004004000080040000C00400010004040
:101880000014004000340140004C01400050014071
:101890000054014000180040001C0040002000409F
:1018A0000040014000440140004801404FF6FF76EF
:1018B00006EA05252A434DF6FF752B400D8906EAF9
:1018C00005352B434D8806EA05352B43FA4DA842D2
:1018D00002D0FA4DA84208D14BF6FF752C408D89F5
:1018E0004FF6FF7606EA85152C4384808283CD88E7
:1018F000A0F84050038470BD828B4FF2FF331A4032
:101900008283828B4FF6FF7303EA01231A4382839B
:101910007047F0B50C461546002200210026078CC2
:101920004EF6FF7C07EA0C070784828B018C4FF68A
:10193000FF7707EA043640F6FF473A404FF6FF7755
:1019400007EA05273A434FF6FF7707EA03373A439A
:10195000D94FB8420ED0D94FB8420BD0B0F1804F1A
:1019600008D0D74FB84205D0D64FB84202D0D64F94
:10197000B84206D14DF6FF77394046F480573943D7
:1019800005E047F6FF57394044F4805739438283D6
:101990000184F0BD828B4FF6F3731A408283828BF1
:1019A0000A4382837047F0B50C4615460022002199
:1019B0000026078C4FF6FF6C07EA0C070784828B22
:1019C000018C4FF6FF7707EA04264FF60C773A4072
:1019D0004FF6FF7707EA03172F433A43B64FB84253
:1019E0000ED0B64FB8420BD0B0F1804F08D0B44FF4
:1019F000B84205D0B34FB84202D0B34FB84206D177
:101A00004FF6FF57394046F48077394305E04FF2EF
:101A1000FF57394044F48077394382830184F0BD15
:101A2000028B4FF2FF331A400283028B4FF6FF7393
:101A300003EA01231A4302837047F0B50C461546AA
:101A4000002200210026078C4FF6EF7C07EA0C07E6
:101A50000784028B018C4FF6FF7707EA041640F6E5
:101A6000FF473A404FF6FF7707EA03373A434FF60E
:101A7000FF7707EA05273A438F4FB8420ED08F4FC2
:101A8000B8420BD0B0F1804F08D08D4FB84205D08E
:101A90008C4FB84202D08C4FB84206D14FF6DF7758
:101AA000394046F01007394305E04FF65F7739407B
:101AB00044F01007394302830184F0BD028B4FF6D6
:101AC000F3731A400283028B0A4302837047F0B516
:101AD0000C46154600220021068C4FF6FE773E404C
:101AE0000684028B018C4FF60C7632407E1C06EA8F
:101AF00003162E433243704EB0420ED06F4EB042AA
:101B00000BD0B0F1804F08D06D4EB04205D06D4E75
:101B1000B04202D06C4EB04206D14FF6FD76314055
:101B200044F00106314305E04FF6F576314044F0CC
:101B30000106314302830184F0BD70B505460C46B1
:101B40005D4885420ED05D4885420BD0B5F1804F8F
:101B500008D05B48854205D05A48854202D05A4891
:101B6000854200D100E000BF208850B92389A288B7
:101B700061882846FFF7ABFFE1882846FFF79EFF04
:101B800025E0208804280AD12389A2886188284674
:101B9000FFF753FFE1882846FFF742FF17E0208850
:101BA00008280AD12389A28861882846FFF7FBFE0E
:101BB000E1882846FFF7EEFE09E02389A2886188C4
:101BC0002846FFF7A6FEE1882846FFF795FE70BD80
:101BD0002DE9F04105460C4600260127608808B92A
:101BE000022600E00026A088012801D1022700E09B
:101BF00001272088A0B92389A28861882846FFF799
:101C000066FFE1882846FFF759FF23893A463146A7
:101C10002846FFF712FFE1882846FFF701FF13E08F
:101C20002389A28861882846FFF707FFE1882846B4
:101C3000FFF7F6FE23893A4631462846FFF747FF6D
:101C4000E1882846FFF73AFFBDE8F0810A884B8813
:101C50001A438B881A43CB881A430B891A434B8942
:101C60001A438B891A43A0F8442070474FF6FF713E
:101C7000818000210180C180418001727047002174
:101C8000018041808180C180018141818181C18148
:101C90007047002101804180012181800021C180A5
:101CA000018170470021018041808180C1800181D4
:101CB0004181818170470000002C014000340140C7
:101CC0000004004000080040000C004021B10288E0
:101CD00042F00102028004E002884FF6FE731A40CF
:101CE0000280704731B1B0F8442042F40042A0F8BD
:101CF000442005E0B0F84420C2F30E02A0F84420CE
:101D000070471AB183890B43838102E083898B4337
:101D1000838170478182704741EA0203A0F848300E
:101D200070471AB183890B43838102E083898B4317
:101D30008381704701894FF6F87211400181704725
:101D40000A46002101894FF68F7319401143018122
:101D5000704730B504460D4629462046FFF7F0FF90
:101D6000208940F00700208130BD2DE9F041044674
:101D70000D4616461F46602D06D13B4601223146D0
:101D80002046FFF75AFE05E03B4601223146204639
:101D9000FFF79DFE29462046FFF7D2FF208940F03D
:101DA00007002081BDE8F08130B50C460021018993
:101DB000C9B24FF6FF7505EA0325154325432943AC
:101DC000018130BD2DE9F04105460E461746984683
:101DD000002443463A4631462846FFF7E5FF2C8962
:101DE0004FF6F870044044F007044FF68F7004403B
:101DF00044F070042C81BDE8F081F0B504460D4636
:101E000016461F463B46324629462046FFF7CCFF82
:101E1000208940F480402081F0BD01858282704796
:101E20000A46002101884FF68F7319401143018043
:101E30007047F0B50C4615461E46002100220023CF
:101E40000189028B038C4FF6F877394021434FF616
:101E5000FC473A4040F201173A434FF6DD773B40EA
:101E60004FF6FF7707EA06172F433B4301810283B2
:101E70000384F0BD0A460021018B4FF68F73194091
:101E80001143018370470A460021018B48F6FF7316
:101E900019404FF6FF7303EA022319430183704789
:101EA0000A460021818B4FF68F73194011438183BD
:101EB00070470A460021818B48F6FF7319404FF6A0
:101EC000FF7303EA022319438183704721B102881B
:101ED00042F08002028004E002884FF67F731A40CD
:101EE0000280704721B1828842F00402828004E0BF
:101EF00082884FF6FB731A408280704721B1828836
:101F000042F00802828004E082884FF6F7731A409C
:101F10008280704721B1828842F00102828004E011
:101F200082884FF6FE731A40828070470A4600216D
:101F3000018B4FF6F77319401143018370470A462E
:101F40000021018B4FF2FF7319404FF6FF7303EA34
:101F500002231943018370470A460021818B4FF603
:101F6000F77319401143818370470A460021818B22
:101F70004FF2FF7319404FF6FF7303EA0223194330
:101F8000818370470A460021018B4FF6FB7319408D
:101F90001143018370470A460021018B4FF6FF333E
:101FA00019404FF6FF7303EA022319430183704778
:101FB0000A460021818B4FF6FB7319401143818340
:101FC00070470A460021818B4FF6FF3319404FF6C8
:101FD000FF7303EA02231943818370470A460021F5
:101FE000018B4FF67F7319401143018370470A46F6
:101FF0000021018BC1F30E014FF6FF7303EA0223A8
:102000001943018370470A460021818B4FF67F7385
:1020100019401143818370470A460021818BC1F327
:102020000E014FF6FF7303EA0223194381837047C1
:102030000A460021018C4FF6FD73194011430184BB
:1020400070470A460021018C4FF6F773194011437F
:10205000018470470A460021018C4FF6DF73194056
:102060004FF6FF7303EA02131943018470470A46CF
:102070000021018C4FF67F7319404FF6FF7303EA7E
:1020800002131943018470470A460021018C4FF660
:10209000FF5319404FF6FF7303EA022319430184EB
:1020A00070470A460021018C4FF2FF7319404FF62A
:1020B000FF7303EA02231943018470470A46002193
:1020C000018C4DF6FF7319404FF6FF7303EA02339C
:1020D00019430184704730B5002301248C40A3B21A
:1020E000048C9C430484048C02FA01F5ADB22C43A9
:1020F000048430BD30B5002304248C40A3B2048C8A
:102100009C430484048C02FA01F5ADB22C43048490
:1021100030BD70B503460020002418461830012554
:102120008D40ACB21D8CA5431D8409B1082909D18D
:1021300000EB6100056825F0700505600568154332
:1021400005600EE00D1FC5F34E052844056825F413
:10215000E045056005684FF6FF7606EA022635433E
:10216000056070BD21B1028842F00202028004E0E5
:1021700002884FF6FD731A400280704721B1028831
:1021800042F00402028004E002884FF6FB731A401A
:102190000280704721B1828842F08002828004E090
:1021A00082884FF67F731A408280704702884FF60C
:1021B000F7731A40028002880A43028070478288BF
:1021C0004FF68F731A40828082880A43828070475C
:1021D00002894FF6F8731A40028102890A4302818C
:1021E000704702894FF67F731A40028102890A43C1
:1021F000028170478184704781857047818670476E
:102200000187704781877047A0F8401070470288A7
:102210004FF6FF431A40028002880A43028070474B
:102220000146888E70470146088F70470146888FA7
:1022300070470146B1F8400070470146888C7047EE
:102240000146088D704702460020138A0B400BB1EF
:10225000012000E000207047CA430282704730B579
:102260000246002000230024158A05EA010395890F
:1022700005EA010413B10CB1012000E0002030BDDB
:10228000CA4302827047000010B50446F7488442F2
:1022900009D101218803FFF79FF800214FF4804006
:1022A000FFF79AF832E0F248844209D1012148044C
:1022B000FFF79FF800214FF40030FFF79AF825E070
:1022C000EC48844209D101218804FFF792F80021EB
:1022D0004FF48020FFF78DF818E0E748844209D1D9
:1022E0000121C804FFF785F800214FF40020FFF713
:1022F00080F80BE0E148844208D101210805FFF78E
:1023000078F800214FF48010FFF773F810BD2DE925
:10231000F04786B005460E460024A24600BFA146FF
:102320000027B08900B100BF2F462C8A4CF6FF7001
:102330000440F08804432C82AC894EF6F31004402C
:10234000B08831890843718908430443AC81AC8A61
:102350004FF6FF400440B0890443AC8201A8FEF769
:10236000B4FFC248874202D1DDF810A001E0DDF8D9
:102370000CA0A88900F4004040B10AEBCA0000EBB1
:102380000A1031684900B0FBF1F807E00AEBCA0017
:1023900000EB0A1031688900B0FBF1F86420B8FB4B
:1023A000F0F004012009642101FB1089A88900F4E0
:1023B000004040B1322000EBC900B0FBF1F000F06A
:1023C0000700044308E0322000EB09106421B0FB51
:1023D000F1F000F00F0004432C8106B0BDE8F08757
:1023E0004FF41651016000218180C18001810C21D0
:1023F000418100218181704710B502460020108A7A
:102400004FF2FF0318400B884C8823438C882343EA
:10241000CC8823431843108210BD002101804180E5
:102420008180C180704721B1828942F4005282814B
:1024300004E082894DF6FF731A4082817047F0B53F
:102440000346002400260025002040F66A17B94202
:1024500000D100BF1846C1F3421401F01F06012746
:1024600007FA06F5012C01D10C3004E0022C01D151
:10247000103000E014301AB107682F43076002E003
:102480000768AF430760F0BD1AB1838A0B438382AC
:1024900002E0838A8B4383827047028A4FF6F0738F
:1024A0001A400282028A0A430282704782894FF2EE
:1024B000FF731A40828182890A438281704721B169
:1024C000828942F00202828104E082894FF6FD7324
:1024D0001A4082817047028A4FF6DF731A400282E7
:1024E000028A0A430282704721B1028A42F4804282
:1024F000028204E0028A4BF6FF731A4002827047A0
:1025000002460020B1F5007F00D100BF13880B40C8
:102510000BB1012000E00020704770B504460D4665
:10252000574EC5F30800A08000E0761E80212046AB
:10253000FFF7E6FF08B9002EF7D170BD10B50446CD
:1025400000BF20212046FFF7DBFF0028F9D0A0883C
:10255000C0F3080010BD818941F0010181817047FD
:10256000028BD2B20283028B42EA012202837047BD
:10257000028B02F47F420283028B0A43028370477C
:1025800021B1828A42F02002828204E0828A4FF6E0
:10259000DF731A408282704721B1828A42F01002B2
:1025A000828204E0828A4FF6EF731A40828270477B
:1025B00021B1828A42F00802828204E0828A4FF6C8
:1025C000F7731A408282704721B1828942F4004237
:1025D000828103E08289C2F30E028281704721B1B9
:1025E000828A42F40062828204E0828A4FF2FF73A0
:1025F0001A4082827047828A4FF6FB731A408282A9
:10260000828A0A438282704721B1828A42F00202A2
:10261000828204E0828A4FF6FD731A4082827047FC
:1026200001F40072B2F5007F00D100BFCA430280FE
:10263000704770B50246002400230025002040F6B4
:102640006A16B14200D100BFC1F3421501F01F0369
:10265000012606FA03F3012D02D19689334013E0D7
:10266000022D0FD1168A33400EE0000000380140E1
:102670000044004000480040004C00400050004032
:10268000FFFF4F00968A33400C12012606FA04F42D
:102690001688344013B10CB1012000E0002070BD59
:1026A00010B50022002340F66A14A14200D100BFF9
:1026B0000A1201249440A3B2DC43048010BD000040
:1026C00001684FF6FE721140016000210160416017
:1026D0008160C1608D49884208D18C4908394968B8
:1026E00041F00F01894A083A51608AE08749143164
:1026F000884208D185490839496841F0F001834A88
:10270000083A51607DE081492831884208D17F49EB
:102710000839496841F470617C4A083A516070E0B8
:102720007A493C31884208D178490839496841F4EE
:102730007041764A083A516063E0744950318842EA
:1027400008D172490839496841F470216F4A083A42
:10275000516056E06D496431884208D16B490839AF
:10276000496841F47001694A083A516049E0674993
:102770007831884208D165490839496841F070616B
:10278000624A083A51603CE06149884206D1011F23
:10279000096841F00F01021F116032E05C491431F9
:1027A000884208D15A49091F096841F0F001584A86
:1027B000121F116025E056492831884208D154493A
:1027C000091F096841F47061514A121F116018E035
:1027D0004F493C31884208D14D49091F096841F4ED
:1027E00070414B4A121F11600BE049495031884239
:1027F00007D14749091F096841F47021444A121F53
:102800001160704710B50022026847F6F0739A43D2
:102810000C6A8B6823430C6923434C6923438C69FE
:102820002343CC6923434C6A23438C6A23431A43D2
:102830000260CB6843600B6883604B68C36010BD67
:102840000021016041608160C1600161416181617D
:10285000C161016241628162704721B1026842F048
:102860000102026004E002684FF6FE731A40026043
:1028700070471AB103680B43036002E003688B439F
:1028800003607047416070470146486880B27047F6
:1028900001460020002201F080531BB11C4B083B75
:1028A0001A6802E0194B083B1A6802EA01030BB1EF
:1028B000012000E00020704700F0805119B1144958
:1028C000091F086002E01149083948607047014655
:1028D0000020002201F080531BB10D4B083B1A6809
:1028E00002E00A4B083B1A6802EA01030BB101201F
:1028F00000E00020704700F0805119B10449091F21
:10290000086002E001490839486070470800024049
:10291000080402400E49086070470D49486070473E
:102920000B49886070474AF6AA2009490860704739
:102930004CF6CC4006490860704701460020044A26
:10294000D2680A400AB1012000E000207047000070
:102950000030004010B50446BE48844208D1012131
:102960008014FEF739FD0021A014FEF735FD16E0B6
:10297000B948844208D101210014FEF73AFD002134
:102980002014FEF736FD0AE0B448844207D1012145
:10299000C013FEF72EFD0021E013FEF72AFD10BD47
:1029A00010B50022028802F441520B884C88234360
:1029B0008C882343CC8823430C8923434C892343AD
:1029C0008C892343CC8923431A430280838B4FF2A3
:1029D000FF74234083830B8A038210BD2DE9F04FDF
:1029E00085B005460C464FF0000902274FF000085D
:1029F0004FF0010B0026B246A88B4FF24001084071
:102A0000A88302202884B5F81C90A068022801D170
:102A100000BF38E0A08810B94FF0010B01E04FF083
:102A2000020B8D48854200D100E000BF6846FEF7EA
:102A30004CFCDDF800A0E088B0F5007F0AD14FEA39
:102A40001A2000EB80004000A168B0FBF1F0401DAF
:102A500086B20BE04FEA4B10BAFBF0F000EB8000BF
:102A60004000A168B0FBF1F0401D86B20A20B6FB21
:102A7000F0F606F00108A6EB0800C0F34F074FF68A
:102A8000FF7000EA0828022F01DBFF2F02DD02277A
:102A90004FF00008E08840EA080038432884A08806
:102AA000A1890843618808432188084340F40060F5
:102AB00040EA0909A5F81C9005B0BDE8F08F002197
:102AC000018041808180C180018141818181C181FA
:102AD0000721018270470021018041808180C180EF
:102AE0000221816000218181704721B1028842F07A
:102AF0004002028004E002884FF6BF731A40028051
:102B0000704721B1828B42F48062828304E0828B21
:102B10004FF6FF331A408283704730B500240023FC
:102B20000C110125A540ABB21AB185881D438580E3
:102B300002E085889D43858030BD1AB183880B43B0
:102B4000838002E083888B43838070478181704754
:102B50000146888970474FF6FF62914204D002888F
:102B600042F48072028004E002884FF6FF631A404C
:102B70000280704721B1828842F00402828004E022
:102B800082884FF6FB731A408280704702884FF2AA
:102B9000FF731A40028002880A430280704701884E
:102BA00041F480510180704721B1028842F4005203
:102BB000028004E002884DF6FF731A4002807047DD
:102BC00002460020012901D0108B00E0908A704756
:102BD0000146088A7047B1F5804F04D1028842F45B
:102BE0008042028004E002884BF6FF731A400280A4
:102BF00070470246002013890B400BB1012000E012
:102C000000207047CA4302817047F0B50246002099
:102C100000240023002501F00F070126BE40B4B2B6
:102C20000B1101269E40B3B2968806EA0305168969
:102C3000264016B10DB1012000E00020F0BD10B516
:102C4000002201F00F040123A3409AB2D343038171
:102C500010BD00000030014000380040003C004042
:102C60000CB50020019000906C48006840F4803062
:102C70006A49086000BF6948006800F400300090AD
:102C80000198401C0190009818B90198B0F5A06F08
:102C9000F1D16248006800F4003010B101200090CA
:102CA00001E0002000900098012843D15C480068B2
:102CB00040F010005A4908600846006820F0030000
:102CC00008600846006840F0020008605348406809
:102CD000524948600846406848600846406840F4E9
:102CE000806048600846406820F47C1048600846D0
:102CF000406840F4E81048600846006840F0807082
:102D0000086000BF4548006800F000700028F9D056
:102D10004248406820F00300404948600846406847
:102D200040F00200486000BF3C48406800F00C00E2
:102D30000828F9D10CBD10B5FFF792FF10BD10B5F2
:102D40003648006840F00100344908600846406891
:102D50003449084031494860084600683249084013
:102D60002E4908600846006820F480200860084664
:102D7000406820F4FE0048604FF41F008860FFF7B1
:102D8000DAFF4FF000602949086010BD10B500213E
:102D900000200022214B5B6803F00C0121B10429C3
:102DA00006D0082928D107E0214B224C236027E0D8
:102DB0001F4B204C236023E0184B5B6803F470101A
:102DC000164B5B6803F48032022303EB904022B978
:102DD000194B4343174C23600DE0104B5B6803F421
:102DE000003323B1144B4343124C236003E0104BD8
:102DF0004343104C236003E00D4B0E4C236000BF97
:102E000000BF064B5B68C3F303130C4CE15C094B3A
:102E10001B68CB40074C236010BD0000001002402F
:102E2000002002400000FFF8FFFFF6FE08ED00E082
:102E300000127A001400002000093D001800002054
:102E400001F0FDFB00200449087000F05EFF01E086
:102E500001F0B7FCFCE7000028000020704700BF2D
:102E6000FEE700BFFEE700BFFEE700BFFEE77047DA
:102E700070477047704710B5FC48FD49097830F835
:102E80001100401CF949FA4A127821F81200012079
:102E9000FDF785FC10BD10B5F648F549097830F806
:102EA0001100401CF349F24A127821F81200F2484E
:102EB0000088401CF04908800220FDF770FC10BD1E
:102EC0007047704710B54FF4802001F042FDEB4889
:102ED0000BF0B3FEE948C07800F0080020B11421DF
:102EE0004FF4802001F00DFDE448C07800F01000A0
:102EF00028B132214FF4002001F003FD09E0DF4842
:102F0000C07800F0200020B114214FF4802001F09F
:102F1000F8FCDA480BF091FE1020FDF740FC10BDE4
:102F200010B540F22551D648FFF783FBB8B1002019
:102F3000D4490870D248FFF701FBC1B2D2480278E9
:102F40000078401CD04B1870D048815440F2255175
:102F5000CB48FFF7A5FB5021402001F0D2FC10BD6B
:102F600010B54FF40050FFF7B2FCF0B100BF4021A4
:102F7000C748FFF7C5FA0028F9D04FF48050FFF793
:102F80009BFCC3480088C248001D008800228021A5
:102F9000BF48FFF779FA0021BE48FFF75EFC00202A
:102FA000BD4908700120BD49087010BD10B540F240
:102FB0002441B748FFF73DFB58B30021B548143012
:102FC000FFF74BFC4FF48030FFF776FCB14814302C
:102FD000FFF75AFC4042B24908704FF48070AD4987
:102FE0004439C865AE480278AE49AF480DF013F9D0
:102FF000A7480088A648001D00880121A548143074
:10300000FFF72BFC0020A54908700321022001F0E6
:1030100078FC10BD10B54FF00070FFF758FCF8B108
:1030200000BF4021A148FFF76BFA0028F9D04FF00C
:103030008070FFF741FC9D4800889C48001D008877
:10304000002280219948FFF71FFA002191483C3067
:10305000FFF703FC0020964908700120954908708D
:1030600010BD10B540F224419048FFF7E2FA58B382
:10307000002188482830FFF7F0FB4FF48010FFF75D
:103080001BFC84482830FFF7FFFB40428A49087048
:103090004FF480707F494439086787480278874930
:1030A00087480DF0B8F8814800888048001D0088E6
:1030B000012178482830FFF7D0FB00207D490870B7
:1030C0000321082001F01DFC10BD10B52020FFF7E2
:1030D000FEFB10B300BF40216948FFF711FA00283A
:1030E000F9D01020FFF7E8FB654800886448001D10
:1030F0000088002280216248FFF7C6F90021654858
:103100002838FFF7AAFB00206E49087001205D49AE
:10311000087081026C48FDF738FF10BD10B56B4890
:10312000FFF7D5FB08B300BF40216948FFF7E8F976
:103130000028F9D06748FFF7BFFB6548008864485E
:10314000001D0088002280216148FFF79DF90021C1
:103150006148FFF782FB0020604908700120604948
:10316000087041025F48FDF710FF10BD10B540F236
:1031700024415748FFF75DFA50B3002156482838DC
:10318000FFF76BFB5848FFF797FB53482838FFF7CA
:103190007BFBC0F180005549087080204E492439DE
:1031A000086052480278524952480DF034F84848B5
:1031B00000884748001D0088012147482838FFF74C
:1031C0004CFB0020464908700321802001F099FB48
:1031D00010BD10B540F225514748FFF72AFAD0B18B
:1031E0000020464908704448FFF7A8F9C1B2444896
:1031F000444A1278815443480078401C4149087081
:1032000040F225513C48FFF74BFA1E214FF48060F5
:1032100001F077FB9EE040F227713748FFF709FA8B
:1032200010B3394802780078401C374B1870374883
:10323000815C3148FFF771F93348007834490978E7
:10324000884210DB002240F227712B48FFF7F7F885
:1032500040F227712848FFF723FA012240F2266145
:103260002548FFF7ECF875E054E0000014E9002071
:10327000260400208EE900205C000020B80E00200B
:10328000004800403700002039000020380A0020A4
:10329000003801404400024033000020320000208A
:1032A00034000020380800202D0F0020004400408A
:1032B0002E0000202D0000202F00002038060020C6
:1032C000AD10002038000020001401400000021062
:1032D000004C004000000110580402403D00002056
:1032E0003C000020000C0140000100103E000020C6
:1032F000380B0020AD13002000500040410000209A
:10330000380D00204300002044000020B80D0020AC
:103310004500002040F226618C48FFF78AF9C8B1C9
:10332000002240F226618948FFF789F840F22661C1
:103330008648FFF7B5F94FF480718548FDF725FE03
:10334000002084490870844908700120834908706E
:103350008349087010BD10B501218807FEF77FFF73
:1033600000283ED07F480078401C7E4908700846FF
:1033700000783C2801DD0020087000207A49794A55
:10338000127821F812007949764A127821F8120051
:103390007749744A127821F8120076480088401C58
:1033A0007449088008460088B42815DB72480088F4
:1033B000022803DC00207049088004E06E48008881
:1033C000801E6D4908806C4800886C490880002088
:1033D000694908806749088001218807FEF750FF86
:1033E00014E002214807FEF73AFF01280ED102211E
:1033F0008007FEF745FF5D485A49097830F811000B
:10340000401C5A49574A127821F8120010BD10B5D5
:103410005B48C07B12287DD104215A48FEF71FFF6C
:10342000012875D104215748FEF72AFF002056498C
:10343000087056480078D0B952482030008840F0D3
:1034400020005049203108804E48FEF7ECFE5049DC
:10345000088001204F4908704C4908704E48007898
:10346000401C4D49087000204C49087050E0474806
:10347000007801284CD149480078401C4749087021
:103480000020454908703F48FEF7CDFE44490880BA
:10349000084600883E49098888420ADD404800887D
:1034A0003B490988401A3F490860012039490870A2
:1034B0000CE0374800884FF6FF71081A3849098830
:1034C00008443849086001203249087036480078BD
:1034D00036490978884202DB0020334908703148B8
:1034E000006849F2966188420FD22E480068802811
:1034F0000BD32C4800682E492B4A127841F8220041
:1035000029480078401C2849087000201F4908708D
:10351000012100E018E01B48FEF7A1FEA0B1012147
:103520001848FEF7ADFE1B480078401C194908708A
:1035300019480078052801DD00BFFEE7174800782C
:10354000052801DD00BFFEE710BD0000005000406F
:10355000000C0140440000204500002042000020F3
:10356000410000202604002014E900209AE80020F1
:103570008EE900205A0000205C000020E8030020B3
:1035800090000020000C004028040020540000207F
:103590005000002057000020550000205600002059
:1035A000520000204C00002058000020270400207A
:1035B00008EA002010B5FDF787FD4FF48030FDF7D5
:1035C000A3FDFDF7E0FDFD490870084600780128DD
:1035D00026D10020FDF71DFE0020FDF72CFE4FF444
:1035E0008060FDF71FFE0220FDF7E2F81020FDF7D6
:1035F000F3F84FF4E0114FF48030FDF7EDFD0120BA
:10360000FDF7F6FD00BF3920FDF7A1FD0028FAD037
:103610000220FDF7F0FD00BFFDF7F6FD0828FBD105
:103620004FF44040FDF722FE10BD08B501217D207A
:10363000FDF7B8FE01210820FDF7C9FC0121E04893
:10364000FDF7C5FC0120ADF8000010208DF8030047
:1036500003208DF802006946DA48FDF7E7FB0121F7
:10366000D848FDF792FC4020ADF8000010208DF8FE
:10367000030003208DF802006946D248FDF7D6FB0F
:103680000121D148FDF781FC4FF48040ADF80000E6
:1036900010208DF8030003208DF802006946CB4806
:1036A000FDF7C4FB4FF48041C848FDF76EFC4FF4B2
:1036B0000050ADF8000010208DF8030003208DF8B5
:1036C00002006946C148FDF7B1FB4FF40051BF4805
:1036D000FDF75BFC4FF40040ADF8000010208DF8C2
:1036E000030003208DF802006946B848FDF79EFBF1
:1036F0004FF40041B548FDF748FC4FF40070ADF8B9
:10370000000018208DF8030003208DF802006946A0
:10371000AF48FDF78BFB4FF48060ADF8000004204C
:103720008DF803006946AA48FDF780FB2020ADF81C
:10373000000018208DF8030003208DF80200694670
:10374000A248FDF773FB4020ADF8000004208DF87F
:10375000030069469D48FDF769FB1020ADF80000A5
:1037600018208DF8030003208DF802006946974861
:10377000FDF75CFB10219548FDF707FC0820ADF82C
:10378000000004208DF8030069469048FDF74EFBC9
:103790008020ADF8000018208DF8030003208DF87C
:1037A000020069468948FDF741FB80218748FDF703
:1037B000EAFB4FF48070ADF8000018208DF803008C
:1037C00003208DF8020069468048FDF72FFB4FF477
:1037D0000070ADF8000004208DF8030069467B48B6
:1037E000FDF724FB4FF48060ADF8000010208DF849
:1037F000030003208DF8020069467448FDF716FBAC
:103800004FF48060ADF8000018208DF8030003200D
:103810008DF8020069466F48FDF708FB4FF4006021
:10382000ADF8000004208DF8030069466948FDF7F3
:10383000FDFA4FF40070ADF8000010208DF8030081
:1038400003208DF8020069465F48FDF7EFFA4FF458
:103850008050ADF8000018208DF8030003208DF88B
:10386000020069465B48FDF7E1FA0420ADF800006C
:103870008DF8030069465548FDF7D8FA4FF480707B
:10388000ADF8000010208DF8030003208DF8020031
:1038900069464D48FDF7CAFA4020ADF800001020F7
:1038A0008DF8030003208DF8020069464648FDF7B5
:1038B000BDFA40214448FDF768FB7C20ADF80000CC
:1038C00048208DF8030069463E48FDF7AFFA102006
:1038D000ADF800008DF8030003208DF80200694662
:1038E0003B48FDF7A3FA10213948FDF74CFB1020A7
:1038F000ADF8000048208DF8030069463548FDF713
:1039000095FA8020ADF8000010208DF80300032008
:103910008DF8020069462C48FDF788FA0620ADF8BC
:10392000000000208DF8030069462A48FDF77EFA62
:103930000820ADF8000010208DF8030003208DF85A
:10394000020069462348FDF771FA0120ADF8000036
:1039500004208DF8030003208DF8020069461D48FD
:10396000FDF764FA0320ADF8000004208DF8030091
:1039700003208DF8020069461548FDF757FA8020AC
:10398000ADF8000010208DF8030003208DF8020030
:1039900069460C48FDF74AFA08BD08B50121102018
:1039A000FDF700FD0120ADF8000004208DF80300B4
:1039B00069460848FDF73AFA08BD00005F0000209C
:1039C0003000140000180140000C014000140140B8
:1039D000000801400010014008B501211020FDF74A
:1039E000E1FC0120ADF8000010208DF80300032059
:1039F0008DF802006946FE48FDF718FA08BD08B5C3
:103A000001210820FDF7CEFC4FF40050ADF8000076
:103A100010208DF8030003208DF802006946F54858
:103A2000FDF704FA08BD1CB51020FCF7B8FE042110
:103A30000220FDF711FB1020009000208DF80400FB
:103A40000C208DF8050001208DF806006846FCF773
:103A50002FFE1CBD08B54FF4A060FCF785FB2520A8
:103A60008DF8000001208DF801008DF802008DF81E
:103A700003006846FCF77DFB26208DF8000001203E
:103A80008DF801008DF802008DF803006846FCF700
:103A900070FB27208DF8000001208DF801008DF8C3
:103AA00002008DF803006846FCF763FB34208DF8B4
:103AB000000002208DF8010001208DF802008DF831
:103AC00003006846FCF755FB35208DF80000012007
:103AD0008DF801008DF802008DF803006846FCF7B0
:103AE00048FB0A208DF8000003208DF8010001201A
:103AF0008DF802008DF803006846FCF73AFB1120B0
:103B00008DF8000001208DF8010002208DF80200E0
:103B100001208DF803006846FCF72BFB1C208DF874
:103B2000000001208DF801008DF802008DF80300DF
:103B30006846FCF71EFB32208DF8000000208DF84F
:103B400001008DF8020001208DF803006846FCF7A3
:103B500010FB00214FF00060FCF73DFB08BD00B5F5
:103B600091B001210846FDF710FC01214802FDF744
:103B700019FCA148FEF7A4FDA0480690A0480790B4
:103B8000002008900220099000200A9080200B90CD
:103B900040000C9080000D9020200E9000020F90AD
:103BA0000020109006A99448FEF72CFE00200190FA
:103BB00001208DF808008DF809004FF46020039073
:103BC0000020049002208DF8140001A98B484C3885
:103BD000FCF75FFB072301220B2188484C38FCF7D8
:103BE000F0FB072302220C2184484C38FCF7E9FB48
:103BF000012182484C38FCF783FB01217F484C3877
:103C0000FCF773FB7D484C38FCF791FB00BF7B4809
:103C10004C38FCF791FB0028F9D178484C38FCF778
:103C200095FB00BF75484C38FCF795FB0028F9D18F
:103C300011B000BD1FB501210805FDF7C0FB4FF411
:103C4000165000900020ADF80400ADF80600ADF865
:103C500008006C48C07E0D280DD14FF4166000900E
:103C60004FF48050ADF804000020ADF806004FF48A
:103C70008060ADF808006348C07E0E2807D0614818
:103C8000C07E102803D05F48C07E112809D14FF4B0
:103C9000166000900020ADF80400ADF80600ADF805
:103CA00008000020ADF80C000C20ADF80A006946B1
:103CB0005548FEF72CFB40F225515348FEF7B0FC67
:103CC000012240F225515048FEF7B9FB01214E4830
:103CD000FEF7A9FB1FBD10B50120FDF7E9FA00BFF3
:103CE0006120FDF734FA0028FAD045F25550FEF76E
:103CF00011FE0320FEF711FE40F6B830FEF710FE6D
:103D0000FEF711FEFEF714FE10BD00B587B00121CD
:103D100041F20500FDF746FB3C480078B8B1A02011
:103D2000ADF8040010208DF8070003208DF8060080
:103D300001A93748FDF77AF84020ADF804000420C7
:103D40008DF8070001A93248FDF770F837E000212F
:103D50003048FEF7CAFEE020ADF8040018208DF8C8
:103D6000070003208DF8060001A92948FDF75EF839
:103D70000020ADF808004FF48270ADF80A00002072
:103D8000ADF80C00ADF80E000120ADF810004002B7
:103D9000ADF812003820ADF814000020ADF8160080
:103DA0000720ADF8180002A91A48FEF7F9FD012115
:103DB0001848FEF79AFE01211648FEF7DBFE642044
:103DC0000AF090FF07B000BD00B587B001210520C3
:103DD000FDF7E8FA01218803FDF7E4FA4FF480606B
:103DE000FCF7C2F90E208DF81800012014E0000045
:103DF00000100140000C0140080002404C2401402A
:103E00006000002090000020005000405E00002074
:103E100000080140003001408DF819008DF81A00AB
:103E20008DF81B0006A8FCF7A4F925208DF81800D2
:103E300001208DF819008DF81A008DF81B0006A8D6
:103E4000FCF797F948208DF817004FF48060ADF823
:103E5000140005A9FC48FCF7E9FF03208DF81600C3
:103E600018208DF817004FF40070ADF8140005A964
:103E7000F548FCF7DBFF4FF4165001900020ADF839
:103E80000800ADF80A00ADF80C00F04800780328EF
:103E900009D14FF4E13001900020ADF80800ADF8F1
:103EA0000A00ADF80C00E948C07E0F2809D14FF494
:103EB000165001900020ADF80800ADF80A00ADF8EA
:103EC0000C000020ADF810000C20ADF80E0001A988
:103ED000DF48FEF71CFA012240F22441DC48FEF7DD
:103EE000AEFA0121DA48FEF79EFA01228021D84875
:103EF000FEF7CAFA01224021D548FEF7C5FA07B0FD
:103F000000BD00B58BB001210846FDF73EFA002147
:103F1000D048FEF7A2FCCF48FEF7D2FBCC48001DEC
:103F20000090CD48019010200290000103900020E5
:103F300004908020059000200690079008904FF490
:103F40004050099000200A906946C248FEF75AFC8A
:103F50004FF48050FEF7B0FC0021BE48FEF77DFC18
:103F600001220221BB48FEF784FC0021B94814302D
:103F7000FEF773FCB7481430FEF7A2FBB448001DEF
:103F80000090B6480190002002904FF4807003909A
:103F90000020049080200590002006900790089053
:103FA0004FF44050099000200A906946A948143007
:103FB000FEF728FC4FF48030FEF77EFC0121A54877
:103FC0001430FEF74AFC0BB000BD00B587B00121EC
:103FD0002120FDF7E7F901214804FDF7F0F94FF43E
:103FE0008060FCF7C1F811208DF8180002208DF8D0
:103FF00019008DF81A0001208DF81B0006A8FCF7A7
:10400000B8F826208DF8180001208DF819008DF8D9
:104010001A008DF81B0006A8FCF7ABF848208DF8B5
:1040200017004020ADF8140005A98D48FCF7FEFEEE
:1040300003208DF8160018208DF817002020ADF809
:10404000140005A98648FCF7F1FE0020ADF8080031
:10405000ADF80A00ADF80C004FF44070ADF8100058
:104060000C20ADF80E004FF4E130019001A97D481D
:10407000FEF74DF9012240F224417A48FEF7DFF9BC
:1040800001217848FEF7CFF9012280217548FEF71B
:10409000FBF9012240217348FEF7F6F907B000BD95
:1040A00000B58BB001210846FDF76FF90021694882
:1040B0003C30FEF7D2FB67483C30FEF701FB694815
:1040C000001D0090684801901020029000010390AC
:1040D0000020049080200590002006900790089012
:1040E0004FF44050099000200A90694659483C30EE
:1040F000FEF788FB4FF08070FEF7DEFB002155488D
:104100003C30FEF7AAFB0122022152483C30FEF768
:10411000B0FB00214F482830FEF79FFB4D48283068
:10412000FEF7CEFA4F48001D009050480190002045
:1041300002904FF48070039000200490802005903E
:1041400000200690079008904FF4405009900020FE
:104150000A9069463F482830FEF754FB4FF4801020
:10416000FEF7AAFB01213B482830FEF776FB0BB097
:1041700000BD00B587B001212020FDF713F9012112
:104180008804FDF71CF94FF48060FBF7EDFF0C206D
:104190008DF8180000208DF8190001208DF81A0004
:1041A0008DF81B0006A8FBF7E4FF27208DF8180008
:1041B00001208DF819008DF81A008DF81B0006A853
:1041C000FBF7D7FF48208DF817004FF40070ADF8CB
:1041D000140005A92248FCF729FE03208DF81600DB
:1041E00018208DF817004FF48070ADF8140005A961
:1041F0001B48FCF71BFE0020ADF80800ADF80A00D4
:10420000ADF80C00ADF810000C20ADF80E004FF426
:104210001650019001A91648FEF779F840F2255191
:104220001348FEF7FDF9012240F225511048FEF730
:1042300006F901210E48FEF7F6F8002280210C480D
:10424000FEF722F907B000BD0008014090000020F1
:10425000003801404400024038090020380800209E
:1042600000140140004400403807002038060020B8
:104270000048004000B58BB001210846FDF785F8E5
:104280000021FE48FEF7E9FAFC48FEF719FAFC485F
:104290000090FC48019010200290802003900020A4
:1042A00004908020059000200690079008904FF41D
:1042B0004050099000200A906946F048FEF7A2FAA3
:1042C0001020FEF7F9FA0021EC48FEF7C6FA0122A9
:1042D0000221EA48FEF7CDFA0BB000BD00B587B069
:1042E0000121C804FDF76BF801210220FDF74DF80C
:1042F00001211120FDF756F84FF48060ADF814004D
:1043000018208DF8170003208DF8160005A9DE4847
:10431000FCF78CFD4FF40060ADF8140004208DF81C
:10432000170003208DF8160005A9D748FCF77EFD7D
:104330004FF48060FBF718FF34208DF8180003203D
:104340008DF8190001208DF81A008DF81B0006A8C1
:10435000FBF70FFF3B208DF8180003208DF81900A4
:1043600001208DF81A008DF81B0006A8FBF701FF4D
:104370004FF4E13001900020ADF80800ADF80A00DC
:10438000ADF80C00ADF810000C20ADF80E0001A93E
:10439000BE48FDF7BCFF012240F22441BB48FEF7B6
:1043A0004EF80121B948FEF73EF800228021B748B7
:1043B000FEF76AF801224021B448FEF765F807B01D
:1043C00000BD00B58BB0B148001D0090B048019011
:1043D00010200290802003900020049080200590FF
:1043E00000200690079008904FF40050099000209C
:1043F0000A906946A748FEF705FAA748FEF75CFA57
:104400000021A448FEF729FA01220221A148FEF763
:1044100030FA9E48001D0090A048019000200290B4
:1044200080200390002004908020059000200690BA
:10443000079008904FF40050099000200A906946B8
:1044400094482838FEF7DEF99548FEF735FA012141
:1044500090482838FEF701FA012202218D482838B9
:10446000FEF707FA0BB000BD00B587B00121084682
:10447000FCF7A5FF4FF08040FCF7F8FF41F61F4026
:10448000ADF810000020ADF8120042F20F70ADF848
:1044900014000020ADF8160004A94FF08040FDF78D
:1044A000B9F80220ADF806000020ADF80A0001209E
:1044B000ADF80800ADF80C000020ADF8040001A92B
:1044C0004FF08040FDF739FB002202214807FDF73D
:1044D00018FC002201218807FDF713FC07B000BD7E
:1044E00000B587B001210820FCF769FF6D48FCF793
:1044F000BDFF4720ADF810000020ADF812004FF6C8
:10450000FF70ADF814000020ADF8160004A965484E
:10451000FDF780F80A20ADF806000020ADF80A008B
:104520000120ADF808000020ADF80C000420ADF823
:10453000040001A95B48FDF700FB00220421594853
:10454000FDF7DFFB002201215648FDF7DAFB07B03B
:1045500000BD3EB504460220FCF721F907208DF886
:10456000080001208DF8090000208DF80A000CB128
:10457000012000E000208DF80B0002A8FBF7F9FDF8
:104580000220FCF70CF901210020FCF765FD022058
:10459000009000208DF804000C208DF805000CB16F
:1045A000012000E000208DF806006846FCF780F846
:1045B0003EBD3EB504460120FCF7F1F806208DF81B
:1045C000080001208DF8090000208DF80A000CB1C8
:1045D000012000E000208DF80B0002A8FBF7C9FDC8
:1045E0000120FCF7DCF800210220FCF735FD01205A
:1045F000009000208DF804000C208DF805000CB10F
:10460000012000E000208DF806006846FCF750F815
:104610003EBD08B50020009002226946224809F0FC
:10462000BFFB9DF80000FF2808D09DF80100FF287F
:1046300004D0DD221D491C4809F0B2FB08BD10B5AD
:10464000FEF7B8FFFEF7F1FFFFF7EDF9FFF702FA0B
:10465000FFF7DFFFFFF7EEFAFFF757FBFFF73BFB34
:10466000FFF77DFA01211248FCF78FFC4021114829
:10467000FCF78BFC10484FF0E0211FE01C000240CB
:1046800004480040B80A002000100140004C0040DF
:10469000380C00205804024000000110380B0020A4
:1046A00000010010000C004000B00708900000203E
:1046B00000180140000C0140FEFFFF00486100208F
:1046C00088610520086100F0D6F8FFF709FFFFF7C1
:1046D000CBFEFFF779FBFFF714FCFFF776FCFFF743
:1046E000DFFCFFF746FDFFF7C5FDFFF7F7FDFFF71E
:1046F00068FE4FF480610648FCF747FC4FF40071F8
:104700000448FCF742FC012000F011F810BD000045
:1047100000140140000C014010B5AE48006818B10B
:10472000AC48006808F096FE09F08DFA10BDA94962
:1047300009680143A74A116070472DE9F041074617
:10474000012000F044F9A4480068002834D0A248B1
:10475000046800262EE00025A088B84202D8002078
:10476000A08002E0A088C01BA080A08840B9E0889B
:1047700030B1206820B12068FFF7D9FFE088A08021
:10478000A08808B1206848B91EB99349A06808609C
:1047900001E0A068B0602546A46801E02646A46850
:1047A0003DB1A88810B92868FFF7C1FF28460CF072
:1047B000B3FA00BF002CCED1002000F008F9BDE80C
:1047C000F08170B500240025012000F000F94FF0C1
:1047D000E02084698148B4FBF0F481480068844299
:1047E00008D27F480068051B7E48006828447D4940
:1047F000086015E07A480068844211D940F26540AB
:1048000060436FF07F41A1EB80107449B0FBF1F081
:10481000734909684518734800682844714908605D
:10482000002000F0D4F815B12846FFF786FF0120DC
:1048300000F0CDF86A4804606A4800686A49884216
:1048400009D368480068401A6649086067480068EC
:10485000401C66490860002000F0B9F8FFF75CFFD3
:1048600000205C49086070BD604A126802605D4AC1
:1048700012680A6070470020574908607047014677
:10488000554A106804E002688A4200D102E080685C
:104890000028F8D100BF70472DE9F04107460E46C9
:1048A0003846FFF7ECFF04461CB1A6802046BDE861
:1048B000F0810C200CF058FA0446A4B12760A680C1
:1048C0000020E080A0604448006810B942480460BD
:1048D00007E04148056800E0AD68A8680028FBD102
:1048E000AC602046E3E70020E1E700EB80029100A6
:1048F00000E0491E0029FCD1704708B10021016089
:10490000704770B504460D46012000F060F8294656
:104910002046FFF7C1FF0646002000F058F80EB110
:10492000012070BD0020FCE770B506460D46012051
:1049300000F04DF829463046FFF7AEFF044604B1BB
:10494000E580002000F043F80CB1012070BD00208C
:10495000FCE770B50546012000F039F82846FFF75E
:104960008EFF044614B12046FFF7C7FF002000F079
:104970002EF80CB1012070BD0020FCE770B5054693
:104980000026012000F023F82846FFF778FF0446B0
:1049900004B1A688002000F01AF8304670BD70B54A
:1049A0000025012000F013F80B48046802E0681CA1
:1049B000C5B2A468002CFAD1002000F008F82846FF
:1049C00070BD044909688143024A1160704780F351
:1049D0001088704768000020640000204019010022
:1049E0007400002070000020005C26056C00002090
:1049F0000246FF20F84B1870F84B18700020F84B57
:104A0000187019E012F8010BF34B1B785840F54B66
:104A10001880F5481B88C05CF04B1B785840EE4B63
:104A20001870F248EF4B1B88C05CEC4B1870EC48D8
:104A30000078401CEA4B1870E94800788842E1DBB6
:104A4000E5480078E54B1B7840EA03207047F8B54D
:104A500005460C4629462046FFF7CAFF00287CD1B0
:104A6000E348C07E0D2825D12078012821D1607827
:104A700003281ED1DF49D4F803200A60C97809064B
:104A8000DC4A927841EA0241DA4A527841EA02214C
:104A9000D84A127841EA02000009D64A1070010A89
:104AA000517011460978D44A1173D249497851732B
:104AB00000BFF8BDCE48C07E0E2807D0CC48C07ECF
:104AC000102803D0CA48C07E112824D1207801289C
:104AD00020D1607803281DD1C649D4F803200A608C
:104AE00009780906C34A527841EA0241C14A9278DC
:104AF00041EA0221BF4AD27841EA0200BD4A107061
:104B0000010A517011460978BB4A1173B9494978B5
:104B1000517300BFCDE7B648C07E162843D1207838
:104B2000012832D1607803282FD1B248D4F803107D
:104B30000160B4F8071081800078B0490870AD4872
:104B400040784870AB4800798DF80300A948407957
:104B50008DF80200A748807800E034E08DF801006D
:104B6000A448C0788DF80000A5480099016001466E
:104B70000868A4490BF0F3FB07460BF075FD86B2FD
:104B8000300A9E498870CE7000BF2078022809D173
:104B90006078032806D19C48D4F803100160B4F86B
:104BA0000710818085E79248C07E19280BD12078B4
:104BB000012807D16078032804D120798E49087331
:104BC000E078487375E700BF73E72DE9F0410546CB
:104BD0000E4617461C46032D14D1F11922468B4868
:104BE0000BF019FB8A4804704FF480618948FCF788
:104BF000CAF9012088490870012240F227718748CC
:104C0000FDF71DFC052D14D1F119224684480BF047
:104C100002FB844804704FF480718348FCF7B3F9B9
:104C2000012082490870012240F227718048FDF777
:104C300006FC012D0FD1F11922467E480BF0EBFA4C
:104C40007D48047000207D490870012240F22771E0
:104C50007B48FDF7F4FB022D0FD1F119224679486C
:104C60000BF0D9FA784804700020784908700122C6
:104C700040F227717648FDF7E2FB042D13D1F119BC
:104C8000224674480BF0C7FA73480470E90166487D
:104C9000FCF779F9002071490870012240F2277170
:104CA0006F48FDF7CCFBBDE8F08110B55048C07EE1
:104CB0000D2805D1082300226A490520FFF785FF4A
:104CC0004B48C07E0E2807D04948C07E102803D02C
:104CD0004748C07E112805D10823002262490520DB
:104CE000FFF773FF4248C07E16281FD15F48007847
:104CF00028B9082300225E490520FFF766FF5B48BC
:104D00000078012805D1082300225A490520FFF721
:104D10005CFF56480078012803DB002053490870E7
:104D200004E052480078401C504908703048C07E6A
:104D3000192805D1082300224F490520FFF745FF18
:104D400010BD10B5044601203C4908704B488464EE
:104D5000012280213A48FDF797FB01214748443062
:104D6000FDF77BFD10BD10B5024602200CE00A23C2
:104D700091FBF3F403FB1413303313540A2391FB18
:104D8000F3F3D9B2431E58B20028F0DA10BDF0B5E3
:104D900004461546002604EBC40000EB0410384F0F
:104DA00007EB800020F8135001B9012100220BE02D
:104DB00004EBC40000EB0410314F07EB800030F827
:104DC00012000644501CC2B28A42F1DBB6FBF1F07D
:104DD00085B22846F0BD0000850000208600002036
:104DE0008400002088000020D8180108D817010886
:104DF00090000020D303002026E80020E0030020DC
:104E0000E40300200000C842DA030020B80A0020B2
:104E10003B00002000140140380000200048004002
:104E2000B80D002045000020000C01404200002089
:104E300000500040380900203600002033000020D8
:104E40000038014038070020310000202E000020EB
:104E500000440040380C0020400000203D000020AD
:104E6000004C0040DB190108E3190108D9030020B8
:104E7000FB190108F3190108EB19010800000240B1
:104E8000AE1A002030B503460C4600210AE003EBC1
:104E9000C30000EB0310FE4D05EB800020F811204D
:104EA000481CC1B2A142F2DB104630BD2DE9F041F1
:104EB000B2B007460B461446002600210CE0F54828
:104EC00030F817509D4200DA1D46A54200DD254608
:104ED0002DF81150481CC1B26429F0DB002116E006
:104EE000481CC2B20FE03DF811003DF81280404569
:104EF00007DB3DF811C03DF812002DF811002DF828
:104F000012C0501CC2B2642AEDDB481CC1B2642935
:104F1000E6DB282104E03DF811000644481CC1B23C
:104F20003C29F8DB1420B6FBF0F6B0B232B0BDE895
:104F3000F081FEB5D8480078062880F08687DFE843
:104F400010F006000A0167032104A3049F05002056
:104F5000D2490870D248007B01282DD1D048C07BAF
:104F6000122829D009F076F8CE4908800846008832
:104F70004FF6FF71884214D0CA480278C7480178BA
:104F80000078401CC54B1870C7484254C54800887B
:104F9000020A184601780078401C1870C248425432
:104FA00008E0BE480078401CBC49087008460078FC
:104FB000401C087000F049BFB948007B05282CD17F
:104FC000B748C07B122828D009F08DF8B549088071
:104FD000084600884FF6FF71884214D0B148027825
:104FE000AE4801780078401CAC4B1870AE48425473
:104FF000AC480088020A184601780078401C1870F6
:10500000A948425408E0A5480078401CA34908700C
:1050100008460078401C0870CCE7A148007B0628B1
:1050200018D1A24800689F490880084601789B482B
:1050300002780078401C994B18709B48815499481D
:105040000088020A184601780078401C18709648BB
:105050004254AFE79248007B072838D10021914A9B
:10506000118093490978491CC8B209E0914931F887
:1050700010108C4A128811448A4A1180411CC8B20F
:105080003C28F3DD002009E08A4931F81010854AF8
:1050900012881144834A1180411CC8B2844909789E
:1050A0008842F1DB7F490B787C490A780978491CF2
:1050B0007A4C21707C498B547A4909880B0A214625
:1050C0000A780978491C217077498B5472E7744833
:1050D000007B082809D171480078401C6F4908708E
:1050E00008460078401C087064E76D48007B0A2879
:1050F00030D16B48C07B12282CD009F038F86949B0
:105100000880084600884FF6FF71884218D065482D
:105110000178624802780078401C604B1870624841
:10512000815460480088020A184601780078401CC3
:1051300018705D4842545B4800885F49088008E069
:1051400056480078401C5549087008460078401CB5
:1051500008702FE72EE75248C07B022839D109F0AA
:10516000A8F950490880084600884DF61611884273
:1051700002DB08464B4908804A48017847480278D4
:105180000078401C454B18704748815445480088BA
:10519000010A184602780078401C18704248815471
:1051A00009F06CF93F490880084602783B480178CD
:1051B0000078401C394B18703B48425439480088ED
:1051C000010A184602780078401C1870364881544D
:1051D000F0E63348C07B0A2847D109F0D3F93149BA
:1051E0000880084600884FF6FF7188422BD02D4872
:1051F00002782A4801780078401C284B18702A4809
:10520000425428480088010A184602780078401C59
:10521000187025488154294801781846027800788A
:10522000401C18702048815424480088010A184600
:1052300002780078401C18701B4881541948008877
:105240001F49088010E015480078401C1349087079
:1052500008460078401C087008460078401C08701A
:1052600008460078401C0870A4E60D48C07B0C2856
:105270007ED109F0DAF90B49088008460088B0F5BC
:10528000704F76DC0648007C00EBC0011AE000009D
:10529000AE1A002060000020B1030020B2030020FD
:1052A00090000020BC03002026E8002000012242DC
:1052B0002604002014E90020220400201E040020FF
:1052C0002004002001EB0010FD490988A1EB8000BB
:1052D000FB490880FB48407C00EBC00101EB00105B
:1052E000F749098801EB8000F549088008460278F3
:1052F000F54801780078401CF34B1870F34842548D
:10530000EF480088010A184602780078401C18709F
:10531000EE488154EE480278184601780078401C27
:105320001870EA484254EA480088010A1846027890
:105330000078401C1870E5488154E1480088E54930
:1053400008800846008842F27A3188422FDBE14823
:10535000008842F64A31884229DCDF480088401C38
:10536000DD490880DB480088DC49DB4A128801E01F
:1053700021E01BE021F81200D7480088242819DD1D
:105380000021002005E0D54A32F810201144421CCB
:10539000D0B2D14A12889042F5DBCF4A1288B1FBD5
:1053A000F2F2CF4B1A800022CB4B1A8002E0002091
:1053B000C9490880FEE5C348C07B052828D109F00B
:1053C0009DF8BF490880084600884FF6FF71884263
:1053D00014D0BB480278BC4801780078401CBA4B16
:1053E0001870BA484254B6480088010A1846027834
:1053F0000078401C1870B548815408E0B248007825
:10540000401CB149087008460078401C0870D1E57E
:10541000AC48C07B062818D1B2480068A84908806B
:1054200008460278A84801780078401CA64B1870FE
:10543000A6484254A2480088010A1846027800781B
:10544000401C1870A1488154B4E59E48C07B0728D1
:1054500038D100219A4A1180A3490978491CC8B261
:1054600009E0A24931F81010954A12881144944A73
:105470001180411CC8B23C28F3DD002009E09B49A3
:1054800031F810108E4A128811448D4A1180411C47
:10549000C8B2954909788842F1DB89490B788A4975
:1054A0000A780978491C884C217088498B548449B2
:1054B00009880B0A21460A780978491C217083491A
:1054C0008B5477E57F48C07B122879D1002088492A
:1054D00008607C48407F87490870084600780C289F
:1054E00001DA0C20087083480078322802DD32206F
:1054F000804908707F48007882007F497F480AF021
:105500008AFE00241FE0601CC5B216E07B4850F8FC
:1055100024007A4951F8251088420CD9774830F890
:10552000240086B2754850F82500744941F82400DB
:10553000084640F82560681CC5B26E480078854270
:10554000E4DB601CC4B26B4800788442DBDB0524DA
:1055500009E06A4850F8240065490968084464492C
:105560000860601CC4B263480078401FA042F0DCB1
:105570005F4801684FF4AA7041435E4800780A38DA
:10558000C8225043B1FBF0F04D490880084600881E
:105590005B4908804A4801784B4802780078401CF3
:1055A000494B18704948815445480088010A1846FB
:1055B00002780078401C187044488154FAE4FFE7F0
:1055C0004048C07B082809D13F480078401C3E492C
:1055D000087008460078401C0870EBE43948C07B2E
:1055E000172814D147480178374802780078401CC2
:1055F000354B18703548815442480088020A1846D5
:1056000001780078401C187030484254D2E4D1E44C
:105610002C48807C032803D02A48807C08287DD130
:105620000020394908702748807C082809D140F2B9
:105630001952002134480078FFF738FC33490880BC
:1056400009E040F219524FF483712F480078FFF7B8
:105650002DFC2E4908802E482B490978405C68B9FA
:105660002A480288322128480078FFF70BFC274996
:10567000088001212648244A127881541148007D6F
:105680002449214A1278885423481F4A1278835C9F
:1056900008461D4A1278815C1C4802881A48007826
:1056A000FFF775FB1949088001201949164A12783D
:1056B0008854194814490978405C401C16492EE06A
:1056C000BC03002090000020B203002026E8002048
:1056D0001E040020200400202404002036E80020BE
:1056E0002204002004012142260400208EE900202B
:1056F000CC0300202704002008EA00201C2C0020F6
:10570000C2030020E8030020D2030020BE030020D3
:10571000B9030020B3030020B603002031E0FE4AA5
:10572000127888540846FC490978415CFB48FA4ADB
:105730001278805C814204DB0020F949F64A127835
:105740008854F8480088F8490880F6480088F749E6
:105750000880F4480088F6490880F3480278F54844
:1057600001780078401CF34B1870F3484254EE481F
:105770000088020A184601780078401C1870EE482C
:10578000425462E3ED48407D032803D0EB48407D5E
:10579000082878D10120E0490870E848407D0828B1
:1057A00009D140F219520021DB480078FFF77EFB57
:1057B000DC49088009E040F219524FF48371D64861
:1057C0000078FFF773FBD7490880DD48D249097894
:1057D000405C68B9D34802883221CF480078FFF78F
:1057E00051FBD04908800120D549CB4A1278885412
:1057F000D248C07DC949C84A12788854C848C64AA8
:105800001278835C0846C44A1278815CC5480288D5
:10581000C1480078FFF7BBFAC24908800120C84997
:10582000BD4A12788854BE48BB490978405C401C88
:10583000C1B2BB48B84A12788154B7490978405C74
:10584000B649B54A1278895C884204DB0020B44925
:10585000B14A12788854B3480088B3490880084692
:105860000178B44802780078401CB24B1870B248F6
:105870008154AD480088010A184602780078401C1F
:105880001870AD488154E0E2AC48007E04282CD169
:10589000AA48C07B122828D009F047F8A2490880FE
:1058A000084600884EF66021884214DA9E48017846
:1058B000A04802780078401C9E4B18709E48815486
:1058C00099480088010A184602780078401C187030
:1058D0009948815408E097480078401C9549087021
:1058E00008460078401C0870AFE29448007E052806
:1058F0002CD19248C07B122828D009F051F88A494F
:105900000880084600884FF6FF71884214D0864808
:105910000178884802780078401C864B18708648C9
:10592000815481480088020A184601780078401C9A
:1059300018708148425408E07E480078401C7D4938
:10594000087008460078401C08707EE27B48007EA4
:10595000062818D17B4800687349088008460178FA
:10596000744802780078401C724B18707248815459
:105970006D480088010A184602780078401C1870AB
:105980006D48815461E26D48007E072838D10021BE
:10599000654A11806C490978491CC8B209E06B4915
:1059A00031F81010604A128811445F4A1180411C7E
:1059B000C8B23C28F3DD002009E0644931F810103A
:1059C000594A12881144584A1180411CC8B25E4994
:1059D00009788842F1DB54490B7856490A780978EE
:1059E000491C544C217054498B544F4909880B0A67
:1059F00021460A780978491C21704F498B5424E2CA
:105A00004E48007E082809D14A480078401C494980
:105A1000087008460078401C087016E24748007E6F
:105A20000A282CD14548C07B122828D009F00AF852
:105A30003D490880084600884FF6FF71884214D01F
:105A4000394801783B4802780078401C394B18707F
:105A50003948815434480088010A18460278007891
:105A6000401C18703448815408E032480078401CCB
:105A70003049087008460078401C0870E5E1E4E110
:105A80002E48C07E0B2803D02C48C07E102842D15F
:105A90002F4800882F49098888427DDB2C480088E0
:105AA0002C490988401A2C49088002201A4908709C
:105AB00029480088B0F5967F07DA00212048164A69
:105AC000127881540020244908801D481249097821
:105AD000405C68B92048028832210F480078FFF7FF
